:020000040040BA
:1000000000000220751740005112400053124000BA
:1000100055124000571240005912400000000000E5
:100020000000000000000000000000005B12400023
:100030005D12400000000000B92240000F17400090
:1000400063124000651240006712400069124000D0
:100050006B1240006D1240006F1240004F124000C2
:10006000E90340007312400075124000771240000F
:10007000791240007B1240002D0840007F124000A2
:10008000811240004F124000831240008512400050
:1000900087124000E10240008B1240001906400028
:1000A0001F064000250640002B0640003106400098
:1000B00037064000991240009B1240009D124000FC
:1000C0009F124000A1124000A31240004F124000B6
:1000D00000207047002070470020704700207047C4
:1000E0000020704701F02CB9024B4FF400621A61F6
:1000F0000020704700040E40054B1A6802431A6046
:100100001A69104318615A6911435961704700BF59
:10011000000E0E40034B1A6B104318635A6B1143C9
:1001200059637047000E0E40014BD86B704700BFFB
:10013000000E0E400E4B4FF400221A611822C3F835
:10014000442AC3F8042AD3F8702A22F01802C3F80C
:10015000702AD3F8742A22F01802C3F8742A054BC7
:1001600028221A6080221A6004221A600020704738
:1001700000040E4000800140704700207047704727
:100180007047704700207047704700000A4B0B4AC9
:100190001A6303F5582303F560634FF400625A6451
:1001A0005A601A6F22F400621A675A6F22F40062D2
:1001B0005A670020704700BF008000400301000123
:1001C00070477047704770470020704700207047A5
:1001D000164B174A174810B54FF400141C61C3F8AA
:1001E000442AC3F8042AD3F8701A0140C3F8701ADD
:1001F000D3F8742A0240C3F8742A0F4B80221A6085
:100200001A6004225A614FF001125A600B4A5A6375
:1002100040F20222C3F82021094A0020C3F81C0141
:10022000C3F81801146001221A6010BD00040E40CA
:1002300000700080FF8FFF7F0080004001080001F8
:1002400000E100E0014B01221A607047008000408D
:10025000014B02221A60704700800040014B0020D1
:100260001B69704700800040024BD8601A699207F2
:10027000FCD570470080004008B5FF20FFF7F4FF71
:10028000034B1A69D207FCD59868C0B208BD00BFFD
:1002900000800040084B4FF48072C3F80C11C3F883
:1002A0000801C3F820211A699206FCD54FF40072A8
:1002B000C3F820210020704700800040074B012236
:1002C000C3F80411C3F80001C3F820211A69D2064B
:1002D000FCD50222C3F82021002070470080004096
:1002E000034B1A69520744BF01221A60704700BFCE
:1002F0000080004000207047094B0822DA6001228C
:10030000C3F80411C3F80001C3F820215A69120789
:10031000FCD50222C3F8202108229A60704700BF52
:1003200000060E4073B5D0F806600446304602F071
:1003300065F8054640B90146012001F07DFA4FF00D
:10034000FF34204602B070BD3146FFF7D5FF637918
:10035000052B01D10446F4E7072B04D102B0BDE818
:10036000704001F01DB8C4F81100E368227CE17A06
:10037000A07A1134009401F00BFD0446284602F0E7
:1003800045F8DEE773B54379D0F80610062B04462E
:1003900007D1D0F8110000F0ADF90026304602B0C8
:1003A00070BD084602F02AF8054630B90146012022
:1003B00001F042FA4FF0FF36F0E704F11106C4F8FD
:1003C0001100E368227CE17A0096A07A01F0E0FC5B
:1003D000D4F806100646284600F08CF9284602F0AC
:1003E00015F8DBE701F0C6B830B5184C63691B0798
:1003F00085B022D50223C4F820310123C4F804318A
:10040000002502A912480295039501F0FFFC019511
:1004100042F20F72019B934211DD08210DEB0100A6
:1004200000F068F9656915F001050CD101F016FAC4
:100430002A464021064800F071F905B030BD019B05
:1004400001330193E6E7A369ECE700BF00060E4025
:10045000280C0020364B07B54FF400425A60A3F534
:1004600025634FF4A0621A60A3F5C0631A6AD20133
:1004700053D5304A1A6241F28932996EC90301D4C8
:10048000013AFAD11A6B22F0030242F001021A6318
:1004900041F28932996E080701D4013AFAD1264A0D
:1004A000DA6241F28932996E490701D4013AFAD1F0
:1004B00001221A6341F28932996E080701D4013A88
:1004C000FAD103221A6341F28932996E090701D4E5
:1004D000013AFAD1194B1A4A9A6000F02BF900F050
:1004E000ADF8FFF701FEFFF773FE0022402115482B
:1004F00000F014F9144B08229A60144B18689A887B
:1005000000909B79ADF80420062168468DF80630EE
:1005100000F066F903B05DF804FB0D4A1A6241F27F
:100520008932996EC807A4D4013AFAD1A1E700BF75
:1005300050140E40090837010A01300000140E4023
:10054000010000A5280C002000060E40288840006D
:1005500009083700704700BF002070472DE9F043BD
:100560001648DFF860C0164C172301214FF00C0825
:100570004FF0020E032710264FF6FF75D0F81090AB
:1005800001FA03F242EA0902026108FB03F2A2F552
:100590008A724FEA53195CF80220C2F800E05760F3
:1005A0005662D56103F01F02013301FA02F25F2B9C
:1005B00044F82920E2D10020BDE8F08300040E4079
:1005C00000E100E02000002070B5094D00220C265B
:1005D00006FB02531C7944B1002299601A711B6812
:1005E0000521D8611960104670BD0132F0E700BFE7
:1005F0002000002070B50C244443064D2E192B59C1
:100600001B6AB36898472B5902221A600123337181
:1006100070BD00BF200000200020FFF7EBBF0120CD
:10062000FFF7E8BF0220FFF7E5BF0320FFF7E2BFB7
:100630000420FFF7DFBF0520FFF7DCBF1A4B4FF4A4
:1006400080714FF4C06210B51961C3F8442AC3F831
:10065000042AD3F8702A22F4C062C3F8702AD3F8AF
:10066000742A22F4C062C3F8742A03F500734FF4AD
:10067000D6721A604FF400625A6003221A62002098
:1006800040F20222C3F81C01C3F81801C3F8140198
:10069000C3F81001C3F82021044A102482F808434B
:1006A000116050221A6010BD00040E4000E100E00D
:1006B0007047024B50221A60704700BF00060E4080
:1006C000014BA0221A60704700060E40014B00202B
:1006D0005B69704700060E40024B5A699205FCD5D3
:1006E000D861704700060E40014B9869C0B2704750
:1006F00000060E40084B4FF48072C3F80C11C3F88B
:100700000801C3F820215A69D206FCD54FF40072C3
:10071000C3F820210020704700060E40044B012240
:10072000C3F80411C3F80001C3F82021002070476A
:1007300000060E40174B4FF4804160221961C3F848
:10074000442AC3F8042AD3F8702A22F06002C3F8BE
:10075000702AD3F8742A22F06002C3F8742A0E4B70
:100760004FF4D6721A604FF40C625A601A221A6261
:10077000002040F20222C3F81C01C3F81801C3F89C
:100780001401C3F81001C3F82021044A116050225B
:100790001A60704700040E400040024000E100E093
:1007A000014B50221A60704700400240014BA022CA
:1007B0001A60704700400240014B00205B6970479F
:1007C00000400240024B5A699205FCD5D86170473F
:1007D00000400240014B9869C0B27047004002409F
:1007E000084B4FF48072C3F80C11C3F80801C3F82A
:1007F00020215A69D206FCD54FF40072C3F820219B
:100800000020704700400240074B0122C3F804114A
:10081000C3F80001C3F820215A691207FCD502224F
:10082000C3F820210020704700400240704700BFFD
:100830000020704700207047704700002DE9F04FFE
:10084000544B04281C6885B038BF04200821064694
:100850002046009300F0ACFB0025009B0193074667
:100860002946AB462A46A846AA46A946F4B93846C0
:10087000009101F0CBFD002D6DD0AD1B072D52D89E
:10088000DAF80430B8F1000F45D00099C8F8043008
:100890000A464046082100F034FB404601F0B6FD10
:1008A0000BF10404204605B0BDE8F08F3B68786882
:1008B0000090B34216D312D1B9F1000F07D0C9F896
:1008C00004000821484600F01CFB0434EAE7019BC1
:1008D00030481A46009B136004212022F3E7BDB183
:1008E0009D4215D82B460A46C146384603930292CC
:1008F00001F08CFD0821786800F05AFB029A039BF6
:100900001146C8462246B9461D46009C0746ADE73B
:10091000A346BA46E9E7019A1E4813600421202243
:1009200000F0EFFABCE70BEB05040821204600F0CD
:100930003FFB043D066022460821074600F0E1FA2D
:100940005046CAF800505A46082100F0DAFA3846F4
:1009500001F05CFDB9E7104D2868C0F50413B342FF
:10096000A0D3321D93429DD3082100F021FB2A68B9
:1009700006600821074600F0C4FA2C6804342846B3
:100980002644242204212E6000F0BBFA384601F0F0
:100990003DFD87E7680C0020740C00202DE9F74F1F
:1009A0008346002800F0B580A0F1040908214846DC
:1009B00000F0FEFA002646604A460821044600F090
:1009C000A0FA554BD3F800A09846BAF1000F13D106
:1009D0005248226801685A448A4203BFC0F8009016
:1009E00024220421C3F800901EBF202204211846AF
:1009F00000F087FA204671E00821504600F0D8FA4E
:100A000037460546AC424BD96B680193284601F046
:100A1000FDFC0821686800F0CBFA019B2F46564682
:100A2000002B3AD10546284601F0F0FC3968C7F89A
:100A30000490321D5318994505D1236804330B44A3
:100A40003B6063687B603846082100F05AFAD8F8AA
:100A500000900821484600F0ABFA002605463746CC
:100A6000D5F804A0BAF1000F3DD1284601F0CEFC24
:100A70002A682A4D296832448A42BBD1002F42D1CC
:100A80002548C8F8007020220421043E00F039FAFD
:100A90002E60242204212148AAE79A460546B1E7A0
:100AA0002368C4F804A09B44D34505D12A680433C5
:100AB000134423606B6863604A460821204600F0B7
:100AC00020FA002FAFD1202204211348C8F800904B
:100AD00000F017FA204601F099FC284603B0BDE863
:100AE000F04F01F093BC384601F090FC28466F6847
:100AF00001F08CFC6868082100F05AFA4E46B946AD
:100B00002F460546ACE7C7F804A032460821384610
:100B1000BBE703B0BDE8F08F680C0020740C002028
:100B2000002070471FB50446019102F089F8014684
:100B3000204600F074FE0F4B0146186800F068FA7A
:100B4000044618B94FF0FF3004B010BD0198FFF70C
:100B500075FE03900028F5D004210DEB0100E21C86
:100B600000F0CFF903A8E21D042100F0CAF900202B
:100B7000EAE700BF7C0C002037B5044602F060F8BD
:100B80000146204600F04BFE0C4C0546014620680D
:100B900000F076FA78B10421C21D0DEB010000F0DF
:100BA000EEF9019808B1FFF7F9FE2946206800F038
:100BB0008AFA03B030BD4FF0FF30FAE77C0C00201A
:100BC00070B504460E4602F03BF80146204600F0A0
:100BD00026FE0D4B0146186800F052FA044680B11B
:100BE0000A4DC21C04210A4800F0C9F92846E21D3A
:100BF000042100F0C4F92968064B31441960002033
:100C000070BD4FF0FF3070BD7C0C00206C0C0020DC
:100C1000700C0020780C0020014B1868704700BF52
:100C2000700C0020074B084A1B6818441060074AE4
:100C300012681344984203D90021172000F0FCBD2C
:100C4000704700BF6C0C0020780C0020700C002056
:100C500008B500F053F9024A13680133136008BD68
:100C6000780C002038B5044C22680D4600F049F994
:100C700021682944216038BD780C002038B5044C27
:100C800022680D4600F07BF921682944216038BDB7
:100C9000780C0020024B00221A60FFF792BA00BFC6
:100CA000780C002010B5174886B0002420220421BB
:100CB000046000F026F914484FF404732422042140
:100CC000036000F01EF921461722684601F0EAFE93
:100CD00044F221331720ADF80030FFF7AFFD0B4C85
:100CE0000146206010B9012000F0A6FD2822042151
:100CF000064800F006F922681721684600F001F95D
:100D000006B010BD680C0020740C00207C0C002084
:100D100008B5FFF79FFBFFF7DDF9FFF733FA002275
:100D200019211046FFF730FA00F098FD00F0E6FBBD
:100D3000FEE710B5FFF746FAD720FFF795FAFFF761
:100D40009BFA0446FFF73DFA204610BD08B5FFF7B1
:100D5000F0FF0306FBD508BD38B50C460546FFF786
:100D6000F5FFFFF72FFA0B20FFF77EFAC5F3871088
:100D7000FFF77AFA200A40EA8500C0B2FFF774FA5A
:100D8000E0B2FFF771FA0020BDE83840FFF76CBA17
:100D900038B505460C46FFF7D9FFFFF713FA012DCA
:100DA0000CBFD420D620FFF75FFA0020FFF75CFAD3
:100DB000200AFFF759FAE0B2BDE83840FFF754BA0D
:100DC00070B506460C461546FFF7C0FFFFF7FAF967
:100DD000012E15D195B18320FFF746FAC4F3871091
:100DE000FFF742FAA00000F0FC00FFF73DFA0020F8
:100DF000FFF73AFABDE87040FFF7E3B98820EBE768
:100E00000DB18620E8E78920E6E738B50D460446AF
:100E1000FFF79CFFFFF7D6F9012D0CBF532055209B
:100E2000FFF722FAC4F38710FFF71EFAA00000F0C4
:100E3000FC00FFF719FA0020FFF716FABDE838406A
:100E4000FFF7BFB938B505460C46FFF77FFFFFF740
:100E5000B9F9012D0CBF84208720FFF705FA002087
:100E6000FFF702FA200AFFF7FFF9E0B2BDE83840C9
:100E7000FFF7FAB938B50C460546FFF767FFFFF7ED
:100E8000A1F9D220FFF7F0F9C5F38710FFF7ECF9CD
:100E9000200A40EA8500C0B2FFF7E6F9E0B2FFF7AA
:100EA000E3F90020FFF7E0F90020FFF7DDF900206B
:100EB000FFF7DAF90020BDE83840FFF7D5B908B5EB
:100EC000FFF744FFFFF77EF93D20FFF7CDF92A2019
:100ED000FFF7CAF98020FFF7C7F9A620FFF7C4F98A
:100EE000BDE80840FFF76DB94FF40471B0FBF1F3B2
:100EF00001FB130189B298B2FFF72EBFFFF7BCB90F
:100F000070472DE9F8434FF40478B2FBF8F4A6B229
:100F100008FB14240746894630460021A4B2FFF797
:100F200074FF21460020FFF78DFFB9444F4508D1DB
:100F3000314601220020FFF743FFBDE8F843FFF7E9
:100F400040B90134A4B217F8010BFFF78DF9B4FBD7
:100F5000F8F508FB1545ADB2002DE7D13146013655
:100F600001222846B6B2FFF72BFF29463046FFF78D
:100F70004CFF29462846FFF765FF2C46D6E738B5D3
:100F80000D464FF404710446B2FBF1F001FB102151
:100F900089B280B2FFF7E0FE2544AC4203D1BDE840
:100FA0003840FFF70EB9FFF767F904F8010BF4E7D3
:100FB00070B5064608460C4601F020FA3246054652
:100FC0002146FFF7DCFF284670BDF8B504461746FA
:100FD0000E4691B117213046FFF7EAFF03889F4282
:100FE00005460CD9D0F80F103A4606F10F00FFF76E
:100FF000ECFF0446284601F009FA2046F8BD05D268
:10100000D0F813103A4606F11300F0E70024F1E798
:1010100073B50A460E4601460020FFF7D6FF044688
:1010200048B31720FFF70AFC019038B900210120CE
:1010300000F002FC0024204602B070BD172001F031
:10104000DDF905460028F1D01722002101F02AFD24
:10105000042122460DEB0100FFF753FFC5F80B40BA
:10106000019A2E8017212846FFF74BFF284601F0F2
:10107000CDF9019CDFE70146072000F0DDFBDAE750
:1010800070B50E46044628B90146082000F0D4FB8E
:10109000204670BD1721FFF78BFF0388B34205463A
:1010A00006D009D2D0F80F003146FFF7E9FF044619
:1010B000284601F0ABF9EBE703D93146D0F813002D
:1010C000F3E70024F4E773B50D46044600F0D2FBC5
:1010D00029462046FFF7D4FF054600F0C5FB3DB981
:1010E0000820294600F0A8FB4FF0FF3002B070BD89
:1010F00017212846FFF75CFFD0F80F20D0F81330F7
:101100000446002A45D0D0F80B2004F10B060F301E
:101110000421CBB3FFF7F5FED4F80F2030460B3295
:101120000421FFF7EEFE0221D4F81300FFF740FF81
:101130000646D4F80F0004211330FFF739FFD4F826
:101140000F300168328803F11300FFF73EFF0146BC
:10115000019010B9072000F06FFB02AE042156F891
:10116000042D04F11300FFF7CCFED4F813200B324A
:1011700004213046FFF7C5FE2846FFF70FFC204646
:1011800001F044F90020B1E7FFF7BBFED4F80F20CF
:10119000EDE763B1D0F80B2004211330FFF7B1FE67
:1011A000D4F8132004210B3204F10B00E2E702A86B
:1011B000042140F8043DD4F80B20DBE7EFF309806D
:1011C00000467047704780F3098870477047EFF317
:1011D000088000467047704780F308887047704762
:1011E000EFF31280704780F311887047EFF310809F
:1011F000704780F310887047EFF31380704780F3D7
:1012000013887047EFF31480704780F31488704799
:1012100000BA704740BA7047C0BA704790FAA0F061
:101220007047D0E84F0FC0B27047D0E85F0F80B270
:10123000704750E8000F7047C1E8430F18467047E9
:10124000C1E8530F1846704741E800007047FEE7B9
:10125000FEE7FEE7FEE7FEE7FEE7FEE7FEE7FEE766
:10126000FEE7FEE7FEE7FEE7FEE7FEE7FEE7FEE756
:10127000FEE7FEE7FEE7FEE7FEE7FEE7FEE7FEE746
:10128000FEE7FEE7FEE7FEE7FEE7FEE7FEE7FEE736
:10129000FEE7FEE7FEE7FEE7FEE7FEE7FEE7FEE726
:1012A000FEE7FEE770B58D68064605444FF48060A2
:1012B00001F0A4F8044630B90146012000F0BCFA60
:1012C0004FF0FF3070BD01464FF48062284600F0B9
:1012D000C9F8014630B91D2000F0AEFA204601F0F1
:1012E00095F8EDE7066100F045F9002070BD2DE9A5
:1012F000F041124C236C032B07460E4608DD0021FB
:101300001D2000F099FA4FF0FF384046BDE8F0810B
:10131000D4F840804868256C09686B1C3844236405
:101320002D0100F07CFA3269605363193A445A6027
:10133000F268DF6092089A60E7E700BF800C002047
:101340002DE9F04107460E480E4EDFF83C8001F0D3
:1013500053FC0024336C9C4203DB4FF0FF30BDE8AC
:10136000F08125013B46725B2146404601F0FCFBC3
:10137000AB5BBB4201D00134ECE72046BDE8F08115
:101380002F884000800C00204C88400008B510B920
:101390004FF0FF3008BDC06808B101F037F808BD54
:1013A00038B5C368016923F003030B4404464218AF
:1013B00003449A421CD1636AA16A23F003036018B4
:1013C0000B44024623449A4217D100231946E2698E
:1013D0009A4217D8A56821462046BDB1FFF762FFA3
:1013E000002816DA204601F011F84FF0FF3038BD22
:1013F0001168214442F8041BDBE71168214442F8DC
:10140000041BE0E740F823100133E0E7FFF76FFF2C
:10141000E6E7002038BD38B5114B0D461A6C01784F
:1014200091420DDA03EB0113427899688A4207DA98
:101430005B6853F8224034B92146102000F0FCF9D3
:101440004FF0FF3038BDD0F802208179C31D92B231
:10145000204600F055FF286000F0FAF9686038BDBA
:10146000800C00202DE9F04106461C2088461546D8
:1014700000F0C4FF044630B90146012000F0DCF959
:101480002046BDE8F0811B4B587A20B15A680746C8
:10149000013F2CD194611A686260511C45440122BD
:1014A000256022735A68A26122681960203A22607E
:1014B0002268A6604FF08071C4F81480D1610E4993
:1014C000966151612268203A226022680421052534
:1014D0000626072782E8E2000821116109215161EF
:1014E0000A21916101300B21D1615872C8E79269DC
:1014F000CEE700BFC40C0020351640002DE9F041B6
:10150000154F164E1649174800254FF0F00887F87A
:1015100022804FF4007287F8235035607560B56003
:10152000FFF7A0FF104B114A18600446104B706083
:10153000A0615A60072287F823809D601A600068C6
:101540004030FFF740FE0220FFF75FFEBFF36F8FD2
:10155000A3689847FEE700BF00ED00E0C40C002040
:10156000D80C0020E5034000D00C0020FF760100DD
:1015700010E000E00C4B0D4A1B681BB101211973F0
:101580009B69136013680021187B032802D19B69B3
:101590000121F9E701B1136002221A73044A53686A
:1015A00043F0805353607047D00C0020D40C0020CF
:1015B00000ED00E038B5044630B90146022000F0E5
:1015C0003BF94FF0FF3038BD174D6B68984202D1A0
:1015D00000211B20F3E772B6006908B100F016FF86
:1015E000606908B100F012FF62B66A68697A002388
:1015F0008B4204DA9069844214D1A36993610B4B46
:101600001A68944206D100221A60094BA2691A6036
:10161000FFF7B0FF204600F0F9FE6B7A013B6B72DA
:10162000002038BD0133E3E7C40C0020D00C0020BB
:10163000D40C002008B5024B1868FFF7BBFFFEE78B
:10164000D00C0020024B1A68024B1A60704700BF92
:10165000D40C0020D00C002010B5074A5368517AF2
:1016600000228A4202DB0023184610BD5C688442D7
:10167000FAD09B690132F4E7C40C002010B5014692
:1016800028B91B2000F0D8F84FF0FF3010BDFFF74D
:10169000E3FF044610B901461A20F3E7044B1B6828
:1016A000984201D1FFF766FF03232373002010BD8A
:1016B000D00C002010B5044640B1FFF7CDFF014625
:1016C00030B91A2000F0B8F84FF0FF34204610BDB2
:1016D000054B01220273002418681C60034B02733F
:1016E0001960FFF747FFF1E7D00C0020D40C002071
:1016F00008B5014628B1FFF7AFFFBDE80840FFF786
:1017000059BF1B2000F098F84FF0FF3008BDFFF7DD
:1017100031BF00BF044B1968024609B9034919607B
:10172000186802441A607047EC0B0020E40F002098
:101730004FF0FF3070474FF0FF3070470020704788
:1017400001207047002070470020704770B50D469B
:1017500016460C46631B9E4201DC002070BD14F847
:10176000010BFFF72FF8F5E7FEE770474FF0FF306A
:101770007047704708B5FEF76DFE0C4A0C4B9A4255
:1017800007D10C4B0C4A002193420BD3FFF7C0FA50
:10179000FEE70A49043A8B42F3D252F8040F43F8A9
:1017A000040BF8E743F8041BEEE700BF4C9240003F
:1017B00000000020EC0B0020E40F0020EC0B0020C8
:1017C0000020704700221146014800F0A1B800BF78
:1017D0007E00002008B500220121034800F098F89F
:1017E000C0F3074008BD00BF7E00002010B50023F5
:1017F00041F22104013901D598B210BD10F8012B36
:1018000083EA0223082213F4004F02F1FF324FEA69
:10181000430318BF634012F0FF02F4D1EAE7FFF779
:10182000E5BF000000221146014800F071B800BF7A
:1018300090000020002070470EB4024B03B01880C7
:10184000704700BFDA0F002000487047D80E002014
:10185000014B1888704700BFDA0F0020014B0022AF
:101860001A807047DA0F0020014B01221A8070475E
:10187000D80F0020014B00221A807047D80F00209B
:1018800000221146014800F043B800BF1C010020AF
:1018900008B5002382B243F00103012000F0A5F94E
:1018A00001210246BDE80840014800F031B800BF00
:1018B0001C010020806908B5402203699847002870
:1018C00006DA00210B20FFF7B7FF4FF0FF3008BD0D
:1018D000002008BD806908B50822436998470028A0
:1018E00006DA00210B20FFF7A7FF4FF0FF3008BDFD
:1018F000002008BD10B50C46FFF7ECFF002804DB04
:10190000606820B10021FFF797FF4FF0FF3010BD56
:101910002DE9F0410F4694B09046014638B90220B7
:10192000FFF78AFF4FF0FF3014B0BDE8F081D0F828
:101930000E301D6815B929460420F1E7868974B276
:10194000013402D100210F20EAE74022002104A83F
:1019500001F0A8F8FE238DF810300D238DF8133018
:1019600000238DF81430F3054CBF022301238DF8BA
:1019700015300DF116030093424604AB3946F0B220
:1019800000F0BBF90028CDDBBDF8131004A8FFF769
:1019900046FF04A9ADF811002846FFF78BFF002889
:1019A000C0DB02A92846FFF7A5FF0298BCE708B5EF
:1019B000037D1A0704D50846002141F0020108BD45
:1019C00013F0040304D088B2002141F0010108BDE6
:1019D00019460A20FFF730FF0020002108BD2DE93D
:1019E000F043894695B016461C46074640B9014665
:1019F0000220FFF721FF4FF0FF3015B0BDE8F08364
:101A000052B911460220FFF717FFD7F80E301D68B4
:101A100035B929460420ECE7002BF6D11846ECE74F
:101A20004022002104A801F03DF8FE238DF810307B
:101A300011238DF813304FF0000803238DF8153073
:101A40008DF81480CDF8164031462846BF89FFF73F
:101A5000AEFF0023224643F00203CDE900230246F5
:101A60000B46022000F0C1F81C9900F013F90DF1AB
:101A70001A030093024604AB4946384600F03DF98C
:101A80004045B8DBBDF8131004A8FFF7C8FE04A951
:101A9000ADF811002846FFF70DFF0028ABDBA86961
:101AA00022460369314698470028A4DB02A928464C
:101AB000FFF720FF4046A0E72DE9F043894695B0A7
:101AC00016461C46074640B901460220FFF7B4FE01
:101AD0004FF0FF3015B0BDE8F08352B91146022037
:101AE000FFF7AAFED7F80E301D6835B92946042045
:101AF000ECE7002BF6D11846ECE74022002104A8C1
:101B000000F0D0FFFE238DF8103011238DF8133034
:101B10004FF0000804238DF815308DF81480CDF8AF
:101B2000164031462846BF89FFF741FF0023224671
:101B300043F00203CDE9002302460B46022000F0E9
:101B400054F81C9900F0A6F80DF11A030093024610
:101B500004AB4946384600F0D0F84045B8DBBDF844
:101B6000131004A8FFF75BFE04A9ADF81100284686
:101B7000FFF7A0FE0028ABDBA86922464369314687
:101B800098470028A4DB02A92846FFF7B3FE404689
:101B9000A0E70000F8B50F461646044630B90146E6
:101BA0000220FFF749FE4FF0FF30F8BD05780F2DFA
:101BB00002D900210320F4E70C21012000F0E6FB0C
:101BC000014608B90120ECE70023836063680770D1
:101BD000466013B9606004E013469A68002AFBD19E
:101BE0009960013525700020F8BD0FB4F7B59DF858
:101BF0002050102D05D900210320FFF71DFE0024E1
:101C000009E00821012000F0C1FB044648B9014663
:101C10000120FFF711FE204603B0BDE8F04004B0FC
:101C2000704709AB0193013DEDB2FF2DF3D0019B4D
:101C3000073323F0070303F108025E68019206F000
:101C40000706022E1F6803D900211620FFF7F4FDB6
:101C50003A4631462046FFF79DFF0028E3DA00218F
:101C60000A20FFF7E9FD204600F0D0FBC7E710B5DA
:101C7000044628B901460220FFF7DEFD204610BDCC
:101C8000406808B183686360002383602378013B68
:101C9000237010BDF8B504460D4681B92046F8BD45
:101CA0002846FFF7E4FF4268017806462046FFF722
:101CB00071FF0746304600F0A9FB002F03DB2B78AD
:101CC000002BEDD1EAE70024E8E738B5044630B947
:101CD00001460220FFF7B0FD4FF0FF3038BD4068ED
:101CE00038B9204600F092FB002038BD00F08EFB92
:101CF00028468568002DF9D1F3E72DE9F74F0C9DB3
:101D000007460C461646994603B145B90220002104
:101D1000FFF792FD4FF0FF3003B0BDE8F08F1AB926
:101D20001046FFF762FF06462F706C7096F800A011
:101D300085F806A005F1070800274FF0010B57456D
:101D4000304603DBFFF7C1FF0020E5E7FFF78FFF19
:101D50000146019011F8044B780004F00302824020
:101D6000D5F802000BFA04F40243E4B2C5F80220ED
:101D70004046224600F0FCFDB9F80320019BA04438
:101D80001444A9F80340184600F040FB0137D6E799
:101D900070B50B4C54F8200050F8214015461A46F7
:101DA000049B34B12946204692B2BDE8704000F051
:101DB000A7BA21461020FFF73FFD204670BD00BFA7
:101DC000DC87400037B50446D0F8023082790D46F2
:101DD000417814F8070B0094FFF7DAFF2860FFF74B
:101DE00037FD686003B030BD4FF0FF3070470649E3
:101DF00010B5044688691522036998472060FFF7EB
:101E000027FD606010BD00BF0000002070B50378A2
:101E1000FE2B04460D4606D000211220FFF70CFDD4
:101E20004FF0FF3070BD0023B0F80160B0F8031030
:101E300043708370FFF7F3FC8642EDD16379082B82
:101E40001ED8DFE803F0050A0F141914191408004E
:101E50002846FFF7CCFF002070BD2946A01DFFF7E4
:101E6000B1FFF8E72946A01DFFF7D5FAF3E72046B2
:101E7000FEF758FA2860EEE72046FEF783FAF9E706
:101E800000211C20CAE700BF0020704700207047D7
:101E9000002070470020704770470020704770474F
:101EA00070470020704770477047000000221146BD
:101EB0000148FFF72DBD00BF4001002037B50025C8
:101EC0000C4645F0020500230246CDE9004543F0EB
:101ED00002030220FFF789FE02460348012103B0F6
:101EE000BDE83040FFF714BD4001002037B50025A4
:101EF0000C4645F0020500230246CDE9004543F0BB
:101F000002030220FFF771FE02460348022103B0DC
:101F1000BDE83040FFF7FCBC4001002008B50023BD
:101F2000024643F002030120FFF75FFE0321024651
:101F3000BDE808400148FFF7EBBC00BF40010020AE
:101F4000002211460148FFF7E3BC00BF5201002008
:101F500008B5002211460248FFF7DAFC002008BD50
:101F6000640100201FB5D2B20023CDE90223CAB21A
:101F70000023CDE90023C2B200230320FFF735FE82
:101F800002460348012105B05DF804EBFFF7C0BC31
:101F900064010020002211460148FFF7B9BC00BFD0
:101FA0007601002000207047002211460148FFF70B
:101FB000AFBC00BF9A010020002201210148FFF7B9
:101FC000A7BC00BF9A010020002202210148FFF7B0
:101FD0009FBC00BF9A01002008B5002203210248DF
:101FE000FFF796FCC0B208BD9A01002008B5002298
:101FF00005210248FFF78CFCC0B208BD9A01002001
:1020000008B5C2B200230120FFF7EFFD042102460C
:10201000BDE808400148FFF77BBC00BF9A010020E3
:1020200007B50023009302460B4603480621FFF73D
:10203000D6FC03B05DF804FB9A01002007B500232D
:10204000009302460B4603480721FFF735FD03B016
:102050005DF804FB9A010020002211460148FFF7B9
:1020600057BC00BFAC01002008B50023024643F076
:1020700002030120FFF7B9FD00210246BDE8084038
:102080000148FFF745BC00BFBE01002008B5002392
:10209000024643F002030120FFF7A7FD012102469B
:1020A000BDE808400148FFF733BC00BFBE01002077
:1020B00008B50023024643F002030120FFF795FD17
:1020C00002210246BDE808400148FFF721BC00BFDD
:1020D000BE010020002211460148FFF719BC00BFD5
:1020E000D0010020002211460148FFF711BC00BFBB
:1020F000E201002008B5002211460248FFF708FC63
:10210000002008BDF4010020002201210148FFF752
:10211000FFBB00BFF4010020002202210148FFF7AD
:10212000F7BB00BFF4010020002203210148FFF7A4
:10213000EFBB00BFF401002008B5002204210348D2
:10214000FFF7E6FBC0F3074008BD00BFF401002025
:1021500008B5C2B200230120FFF747FD0521024662
:10216000BDE808400148FFF7D3BB00BFF4010020E1
:1021700008B50023024643F002030120FFF735FDB6
:10218000062102460248FFF7C3FBC0F3074008BD23
:10219000F401002007B50023009302460B460348D4
:1021A0000721FFF71CFC03B05DF804FBF4010020DD
:1021B00037B50023044643F0020301200D46FFF724
:1021C00014FD2B460090224608210248FFF774FCBC
:1021D00003B030BDF401002008B5002211460248CA
:1021E000FFF796FB002008BD060200200022012117
:1021F0000148FFF78DBB00BF06020020002202212C
:102200000148FFF785BB00BF0602002008B5002289
:1022100003210348FFF77CFBC0F3074008BD00BF64
:102220000602002008B5002205210348FFF770FBD5
:10223000C0F3074008BD00BF0602002008B5C2B2C7
:1022400000230120FFF7D1FC04210246BDE808402D
:102250000148FFF75DBB00BF0602002007B5002361
:10226000009302460B4603480621FFF7B8FB03B074
:102270005DF804FB0602002007B500230093024628
:102280000B4603480721FFF717FC03B05DF804FB7A
:102290000602002000207047002211460148FFF787
:1022A00037BB00BF2A020020002201210148FFF7AE
:1022B0002FBB00BF2A02002072B6EFF3098010384E
:1022C000F0C044464D4656465F462038F0C01038B0
:1022D000094A11680860094A11680868F0C8A046F0
:1022E000A946B246BB46F0C880F30988FFF7AAF9B1
:1022F0006FF0020062B60047D00C0020D40C002022
:102300002DE9F04304460D4616461F464FF00008DF
:10231000002D34D0B14609F00309B9F1000F06D001
:10232000B9F1010F08D0B9F1020F0AD029E097F8EE
:10233000009007F1010708E0B7F8009007F10207E5
:1023400003E0D7F8009007F10407B8F1000F09D0B7
:10235000B8F1010F08D0B8F1020F07D0B8F1030FA0
:1023600006D006E0484604E0494602E04A4600E05E
:102370004B46B608A5F1010508F10108C8E7A047DA
:1023800001E04FF0FF30BDE8F0830000024B0A4649
:102390000146186800F002B84002002010B502FBA8
:1023A00001F100F03BF80446D8B150F8042C22F0BB
:1023B0000302043A242A18D8132A14D900231B2A0A
:1023C0000360436016D9242A8360C36011BF00F103
:1023D00010020361436100F118020023136053608F
:1023E0009360204610BD0246F7E7002100F05AFB3B
:1023F000204610BD00F10802EFE700BF024B014686
:10240000186800F00BB800BF40020020024B0146E4
:10241000186803F0C1B800BF400200202DE9F04F5A
:1024200001F10B06162E83B0054640F29E8036F071
:10243000070600F1BD80B14200F2BA8000F080FBD7
:10244000B6F5FC7FC0F08F82730A00F0B880042BD1
:1024500000F27D81B30903F1390003F1380EC300A6
:10246000C14F3B44A3F108015C68A14206D10CE0D6
:10247000002A80F2AA80E468A14206D0636823F0B3
:1024800003039A1B0F2AF3DD70463C69DFF8DCE298
:10249000744500F0A781636823F003039A1B0F2A99
:1024A00000F38C81002AC7F814E0C7F810E080F22E
:1024B0009D80B3F5007F80F05D81DB0803F1010CA6
:1024C00099107A6857F83C80C4F8088001238B4043
:1024D00007EBCC0113430839E1607B6047F83C40CF
:1024E000C8F80C408210012494409C4200F28B807A
:1024F0001C4206D120F0030064001C4200F10400DD
:10250000FAD007EBC009CC468046DCF80C309C457D
:1025100007D169E1002A80F27781DB689C4500F0F1
:102520006381596821F003018A1B0F2AF2DDD3F879
:102530000CC0D3F8088001939C19284646F0010688
:1025400042F001055E60C8F80CC0CCF808807C61E0
:102550003C61C4F80CE0C4F808E065605A5000F033
:10256000F1FA019B03F108041EE0102920D800F0C5
:10257000E7FA1026182302207B4F3B44A3F1080200
:102580005C68944200F039816368E168A66823F0D2
:102590000303234428465A68F16042F001028E602A
:1025A0005A6000F0CFFA0834204603B0BDE8F08F3F
:1025B00000240C2320462B6003B0BDE8F08F4020A0
:1025C0004FF400734FF03F0E4AE72344E1685A6826
:1025D000A66842F00102F16028468E605A6000F061
:1025E000B1FA0834204603B0BDE8F08F23442846F2
:1025F0005A6842F001025A6000F0A4FA08342046FA
:1026000003B0BDE8F08FBC68636823F00309B145EF
:1026100004D3A9EB06030F2B00F38980DFF850A148
:10262000D7F80824DAF80030013204EB090B06EB86
:10263000030800F0508108F5805808F10F0828F4CD
:102640007F6828F00F084146284600F0DDFA421C5A
:10265000034600F0F680834500F2F180DAF80420AA
:102660004244CAF8042000F04781D7F80814013129
:102670001BBFA3EB0B0B5A44C7F80834CAF804205D
:1026800013F0070200F00D81C2F10801C2F580527B
:102690000B4408329844C8F30B08A2EB08084146E3
:1026A0002846019300F0B0FA431C019B00F03E81E4
:1026B000C11A414441F00101DAF80420BB604244F0
:1026C000BC425960CAF8042016D0B9F10F0F40F28D
:1026D000F4806168A9F10C0323F00703E01801F00E
:1026E00001014FF0050E19430F2B6160C0F804E0A3
:1026F000C0F808E000F21281DAF82C30BC689A4287
:10270000DAF8303088BFCAF82C209A4288BFCAF85D
:102710003020626822F003029642A2EB060301D841
:102720000F2B04DC284600F00DFA00243CE7A21928
:1027300043F0010346F0010666602846BA60536024
:1027400000F000FA0834204603B0BDE8F08F142BE7
:1027500069D9542B00F29B80330B03F16F0003F116
:102760006E0EC3007CE600BF7006002078060020D5
:10277000F00B00205A0A042A5BD9142A00F2AE801A
:1027800002F15C01C9005B3207EB010C7958ACF136
:10279000080C8C4500F088804A6822F003029342BE
:1027A00073D289688C45F7D1DCF80C207B68E26035
:1027B000C4F808C09460CCF80C4093E6A11946F028
:1027C000010C42F00106C4F804C028467961396161
:1027D000C1F80CE0C1F808E04E60E25000F0B2F938
:1027E0000834E1E67B687DE608F1010818F0030F84
:1027F0000CF1080C7FF489AE2DE0DC68A34208BF21
:1028000002303FF442AEBFE619441C464A68DB681A
:1028100054F8086F42F001024A602846F3609E6057
:1028200000F090F9C0E603F15C0003F15B0EC30019
:1028300016E69A0902F13901C9003832A4E7BC4210
:1028400054D0BC68626822F0030265E759F8083981
:10285000994540F0868010F0030F00F1FF30F5D16C
:102860007B6823EA04037B6064009C423FF6CBAEA6
:10287000002C3FF4C8AE1C4240467FF442AE6400D8
:102880001C4200F10400FAD03BE68C468CE7B3F51D
:10289000AA7F15D8F30B03F1780003F1770EC3007C
:1028A000DEE54FF48052F5E67B689210012101FAD3
:1028B00002F213437B60624679E701225A6031E7F6
:1028C00040F25452934223D8B30C03F17D0003F13C
:1028D0007C0EC300C4E508F11008B4E6542A29D8D8
:1028E0001A0B02F16F01C9006E324DE7DAF80420CD
:1028F0004244CAF80420B8E6CBF30B0100297FF468
:10290000B4AE09EB0803B96843F001034B60F3E68A
:102910007F204FF47E734FF07E0EA1E504F1080195
:10292000284602F039FEDAF80420E5E601214FF0EE
:102930000008C1E6B2F5AA7F05D8DA0B02F17801EA
:10294000C900773220E740F254518A4205D89A0CE8
:1029500002F17D01C9007C3216E74FF47E717E22C0
:1029600012E77B6880E7F00806F1080304E600BF81
:10297000844641EA000313F003036DD1403A41D38A
:1029800051F8043B40F8043B51F8043B40F8043B49
:1029900051F8043B40F8043B51F8043B40F8043B39
:1029A00051F8043B40F8043B51F8043B40F8043B29
:1029B00051F8043B40F8043B51F8043B40F8043B19
:1029C00051F8043B40F8043B51F8043B40F8043B09
:1029D00051F8043B40F8043B51F8043B40F8043BF9
:1029E00051F8043B40F8043B51F8043B40F8043BE9
:1029F00051F8043B40F8043B51F8043B40F8043BD9
:102A0000403ABDD2303211D351F8043B40F8043B78
:102A100051F8043B40F8043B51F8043B40F8043BB8
:102A200051F8043B40F8043B103AEDD20C3205D388
:102A300051F8043B40F8043B043AF9D2043208D080
:102A4000D2071CBF11F8013B00F8013B01D30B88F2
:102A500003806046704700BF082A13D38B078DD0D0
:102A600010F003038AD0C3F10403D21ADB071CBFA2
:102A700011F8013B00F8013B80D331F8023B20F80C
:102A8000023B7BE7043AD9D3013A11F8013B00F845
:102A9000013BF9D20B7803704B7843708B788370CD
:102AA0006046704770B4860746D0541E002A41D055
:102AB000CAB2034602E014F1FF343BD303F8012B02
:102AC0009D07F8D1032C2ED9CDB245EA05250F2C50
:102AD00045EA054519D903F110022646103E0F2E8E
:102AE00042F8105C42F80C5C42F8085C42F8045C66
:102AF00002F11002F2D8A4F1100222F00F0204F049
:102B00000F041032032C13440DD91E462246043AFA
:102B1000032A46F8045BFAD8221F22F0030204328B
:102B2000134404F003042CB1C9B21C4403F8011B84
:102B30009C42FBD170BC704714460346C2E700BFFD
:102B4000704700BF704700BF0EB400B582B003AB42
:102B5000816853F8042B019300F0E0F802B05DF8AF
:102B600004EB03B0704700BF0FB400B5074983B052
:102B700004AB086853F8042B8168019300F0CEF889
:102B800003B05DF804EB04B0704700BF40020020C2
:102B9000F0B5054689B008460C4600F051F8AB6B1D
:102BA000144F04940126441C04A9022203940590A6
:102BB000AC680697079601910292B3B1B4F90C3054
:102BC0009A0406D4626E43F4005322F40052A381A7
:102BD00062662146284601AA02F0C4FD002814BFFF
:102BE0004FF0FF300A2009B0F0BD284602F064FC27
:102BF000E4E700BF788F4000024B01461868FFF7FA
:102C0000C7BF00BF4002002038B5074C002305466F
:102C100008462360FEF77EFD431C00D038BD2368C4
:102C2000002BFBD02B6038BDE00F0020000000001F
:102C30000000000000000000000000000000000094
:102C400090F800F06DE9024520F007016FF0000CEC
:102C500010F0070491F820F040F049804FF0000494
:102C60006FF00700D1E9002391F840F000F108006F
:102C700082FA4CF2A4FA8CF283FA4CF3A2FA8CF3A7
:102C80004BBBD1E9022382FA4CF200F10800A4FA0E
:102C90008CF283FA4CF3A2FA8CF3E3B9D1E9042362
:102CA00082FA4CF200F10800A4FA8CF283FA4CF399
:102CB000A2FA8CF37BB9D1E9062301F1200182FA53
:102CC0004CF200F10800A4FA8CF283FA4CF3A2FA59
:102CD0008CF3002BC6D0002A04BF04301A4612BA67
:102CE000B2FA82F2FDE8024500EBD2007047D1E96A
:102CF000002304F00305C4F100004FEAC50514F0F9
:102D0000040F91F840F00CFA05F562EA05021CBFC9
:102D100063EA050362464FF00004A9E72DE9F04F8E
:102D2000C1B01D468B461446824602F0E5FE03689C
:102D300017931846FFF784FF0D951590BAF1000F11
:102D400004D0DAF83830002B00F00581BBF90C20F4
:102D500093B29F040AD4DBF8641042F4005321F4C8
:102D60000051ABF80C30CBF864109BB21E0740F159
:102D7000B980DBF81020002A00F0B48003F01A03B9
:102D80000A2B00F0BD800023184610931193129374
:102D90002593249316931893099330AB08942393A7
:102DA000994613901490CDF828A0D846089C237813
:102DB000002B00F0D480252B02D1D0E0252B03D0AE
:102DC00014F8013F002BF9D1089BE51A95B1249B1B
:102DD000259A0899C9F8001001332A44072BC9F82D
:102DE00004502592249300F39B8009F10809099B64
:102DF0002B4409932378002B00F036870021631CB5
:102E00000A468DF86F1008460E460C464FF0FF3507
:102E10001F780133A7F12001582900F25183DFE820
:102E200011F014024F034F031A024F034F034F03D5
:102E30004F034F034F031D02A0004F035E00F90133
:102E40004F031102CE02CE02CE02CE02CE02CE023D
:102E5000CE02CE02CE024F034F034F034F034F0368
:102E60004F034F034F034F034F03DC02E4024F03B2
:102E7000E4024F034F034F034F0325034F034F0358
:102E800028034F034F034F034F034F032D034F03FB
:102E90004F0332034F034F034F034F034F034F03BF
:102EA0004F034F034F034F033A032702E402E402A8
:102EB000E4025C0227024F034F0359004F038402D0
:102EC000E801BB0259004F0396024F03A3004F03D2
:102ED0004F03630244F010049AE776420D9144F0E8
:102EE000040495E75946504601F012F9002840F0D5
:102EF000C986BBF80C3003F01A030A2B7FF443AFEA
:102F0000BBF90E30002BFFF63EAF2B46224659464A
:102F1000504601F0C7F80990099841B0BDE8F08F1C
:102F200023AA41460A9803F019FE50B90DF1C009D1
:102F30005DE723AA41460A9803F010FE002800F03E
:102F40005381C346BBF80C305A0600F19B860998A2
:102F500041B0BDE8F08F504602F0AEFAF6E6089CAC
:102F600048E701222B2053E708930C960D99E206BF
:102F70000B4600F11984660640F116840B88043173
:102F800001220D9100216E1C8DF86F1000F08E81D2
:102F900024F080000690002B40F08C81002D40F042
:102FA000AD83002A40F0508414F001030B9300F02D
:102FB000758540AE302306F8413D0B9BAB42B8BF50
:102FC0002B46079300230F9311B1079B01330793FF
:102FD000069B13F002030E9302D0079B0233079364
:102FE000069B13F0840A40F081820C9B079AA3EBA6
:102FF000020BBBF1000F40F37982BBF1100F259952
:10300000249A25DD4B461024A9460A9D06E0ABF123
:10301000100BBBF1100F03F1080317DD0132B048AC
:1030200024921031072A259183E81100EFDD23AAAD
:103030004146284603F092FD002882D1ABF1100BE7
:10304000BBF1100F2599249A30ABE7DC4D46994629
:103050000132A34B24920BEB0104072A259489E843
:10306000080800F30B849DF86F1009F1080971B18D
:10307000249B013301340DF16F010122072B2594AC
:10308000249389E8060000F34E8309F108090E9B9A
:103090006BB1249B013302341CA90222072B259417
:1030A000249389E8060000F34A8309F10809BAF17C
:1030B000800F00F08B820B9BED1A002D39DD102D57
:1030C000249BDFF820A227DD51462246B2464FF06E
:1030D000100B0A9C0E4604E0103D102D09F1080962
:1030E00016DD01331032072B2592249389E840081E
:1030F000F2DD23AA4146204603F030FD00287FF48C
:1031000020AF103D102D259A249B0DF1C009E8DC5D
:10311000144632465646924601332C44072B2594DA
:103120002493C9F800A0C9F8045000F3F08209F113
:103130000809069BDA0500F1DB81249B0B99C9F88D
:10314000006001330C44072B2594C9F80410249324
:1031500000F3C88209F10809069B590739D50C9B71
:10316000079A9D1A002D34DD102D249B1FDD10269B
:103170000A9F04E0103D102D09F1080917DD013305
:10318000574A24931034072B259489E84400F1DD35
:1031900023AA4146384603F0E1FC00287FF4D1AE73
:1031A000103D102D259C249B0DF1C009E7DC013357
:1031B0004B4A24932C44072B259489E8240008DDEE
:1031C00023AA41460A9803F0C9FC00287FF4B9AE4F
:1031D000259C099B0C9A07998A42ACBF9B185B18E7
:1031E0000993002C7FF4A5AE002324930DF1C009B0
:1031F000DCE508930C9614F0100340F0488414F0BA
:10320000400200F0F3830D991A46043131F8043C72
:103210000D91B7E61F782A2F03F1010300F005870F
:10322000A7F1300109294FF000053FF6F3AD13F87F
:10323000017B05EB850501EB4505A7F13001092967
:10324000F5D9E7E544F08004E2E500287FF4E0AD3D
:1032500001222020DCE544F00104D9E50D9F3E6801
:103260003946002E01F10401FFF637AE0D91CFE58E
:1032700008930C96002A40F0FA860D9AE006134651
:1032800000F18A82610640F18782B2F9003004328F
:103290000D92002BB7BF2D219DF86F108DF86F1088
:1032A0005B426E1C4FF001027FF472AE002B00F007
:1032B00026820694012A00F0CB82022A40F04D8239
:1032C000169830AE03F00F021B09825C06F8012D40
:1032D000F8D130AB9B1B0B936FE644F0400497E5AD
:1032E0007C8F40008C8F400008930C96002A40F0A1
:1032F000AB86AF4B16930D9AE006134600F1508251
:10330000610640F14D82138804320D92E20740F1CC
:103310004082002B00F03D8230228DF870208DF825
:10332000717044F0020402222CE60893002A40F057
:103330008786E50600F16083600640F15D830D9AA3
:10334000136804320D92BDF824201A802EE50D9AE0
:103350000C96166808934FF0000A8DF86FA002F1E2
:10336000040B002E00F05285691C00F0CA842A4626
:103370005146304602F054FC002800F09885831B2B
:103380000B93554623EAE373CDF834B006940793C4
:103390000F959DF86F1017E60D9A089330230432AD
:1033A00078278DF87030824952F8043C0C960D92C3
:1033B00044F002048DF8717016910222E2E5A7F143
:1033C0003001002613F8017B06EB860601EB46066A
:1033D000A7F130010929F5D91CE508930C96002ABC
:1033E00040F0418644F0100447E708930C96002A09
:1033F00040F041860D9B03F1070B2BF0070303F10F
:1034000008020D921A6811925B681293129BDDF804
:1034100044A023F00046504631464FF0FF32654B42
:1034200005F09EF9002840F04D83504631464FF09C
:10343000FF32604B05F076F9002840F0438311A875
:103440000FC805F065F9002840F0FE849DF86F1064
:10345000594E5A4B0322002524F080000792069013
:10346000472FD8BF1E460B920F95ADE544F00804D8
:10347000CEE408930C9644F01004BCE608930C9636
:1034800044F0100472E508930C96002A40F0E4859D
:103490004B4B16932FE70D98089302688DF89820F0
:1034A0000023024619468DF86F30043201230C9632
:1034B000079306940D460F910D920B9326AE87E568
:1034C00008930C96002A40F0C385002F00F0CC83AF
:1034D00000230122194607928DF8987006948DF802
:1034E0006F301D460F930B9226AE71E5259CBEE50D
:1034F000652F40F3B18011A80FC805F0FFF8002830
:1035000000F05881249B2F4AC9F800200133013470
:103510000122072B25942493C9F8042000F3638328
:1035200009F108091D9B109A259C934203DB069B19
:10353000DB077FF511AE249B1599179AC9F8002077
:1035400001330C44072BC9F804102594249300F38D
:10355000CC8309F10809109B5D1E002D7FF7FCAD9F
:10356000102D249BDFF860A040F3C281574610263F
:10357000DDF828A005E009F10809103D102D40F301
:10358000B68101331034072B25942493C9F80070B9
:10359000C9F80460EFDD23AA4146504603F0DEFA85
:1035A00000287FF4CEAC259C249B0DF1C009E4E7F4
:1035B000C08F4000FFFFEF7FA08F40009C8F400036
:1035C000AC8F4000DC8F40008C8F40000C9B079A32
:1035D000A3EB020BBBF1000F7FF76DADBBF1100F3A
:1035E000249ADFF8DCA42BDD214610235446DDF8B5
:1035F00028A006E0ABF1100BBBF1100F09F1080990
:103600001CDD01321031072A25912492C9F80040AF
:10361000C9F80430EEDD23AA414650460E9303F06C
:103620009DFA00287FF48DACABF1100BBBF1100FAD
:103630002599249A0E9B0DF1C009E2DCA2460C46A6
:1036400001325C44072A2594249289E8000C00F397
:10365000288209F108092EE5109B249D012B40F3D7
:10366000D381013501340123072D25942495C9F810
:103670000060C9F8043000F3E48109F10809159AE3
:10368000179BC9F8003001351444072D2594249563
:10369000C9F8042000F3EE8109F1080911A80FC848
:1036A00005F02CF8109B002840F0F780013B013515
:1036B00001361C44072D24952594C9F80060C9F8EB
:1036C000043000F3B18109F10809189AC9F80420FF
:1036D000013514441FAB072D25942495C9F80030FB
:1036E0007FF738AD23AA41460A9803F037FA00283D
:1036F0007FF427AC259C0DF1C0092DE5069C012A1D
:1037000000F00381022A26D106940023D8E523AADB
:1037100041460A9803F022FA00287FF412AC259C57
:103720000DF1C00905E523AA41460A9803F016FAEF
:1037300000287FF406AC259C0DF1C009A7E423AA5C
:1037400041460A9803F00AFA00287FF4FAAB259C58
:103750000DF1C009ABE40694002330A800E0304628
:1037600003F007023032DB0800F8012C00F1FF36CD
:10377000F5D1069BDC077FF5ACAD302A3FF4A9AD4F
:103780003023023806F8013C30AB1B1A0B93064677
:1037900013E40222FFF7F6BB04321B680D9278E5B2
:1037A00004321B680D92B1E504311B680D910122B2
:1037B000FFF7E8BB1D9A002A40F320820F9B109A66
:1037C0009342A8BF1346002B1D460DDD249BC9F86C
:1037D000006001332C44072B2594C9F8045024932E
:1037E00000F3F98209F108090F9B002DA8BF5B1BAC
:1037F000002B1D4640F39D80102D249BDFF8C0A2B6
:1038000040F3E38152461027B246DDF828B0164651
:1038100005E009F10809103D102D40F3D381013373
:103820001034072B2594249389E8C000F1DD23AAE6
:103830004146584603F092F900287FF482AB259C5C
:10384000249B0DF1C009E6E70B9530AEFFF7B5BB41
:10385000092B59D9994830AEA0FB0342D20802EB9C
:103860008204A3EB4403303306F8013D1346002ADB
:10387000F2D130AB9B1B0B93FFF79FBB23AA4146B2
:103880000A9803F06BF900287FF45BAB9DF86F108A
:10389000259C0DF1C009FFF7EABB5E1E002E7FF7E5
:1038A00014AF102EDFF818A240F3D8801027DDF8EF
:1038B00028B005E009F10809103E102E40F3CE8033
:1038C00001351034072D25942495C9F800A0C9F8B6
:1038D0000470EFDD23AA4146584603F03FF9002863
:1038E0007FF42FAB259C249D0DF1C009E4E7BA4677
:1038F00001332C44072B25942493C9F800A0C9F860
:1039000004507FF727ACEDE6069C069440AE3033BA
:1039100006F8413D01230B93FFF74FBB23AA414615
:103920000A9803F01BF900287FF40BAB259C0DF1DE
:10393000C0091D9B109A934247DB069AD50744D4D1
:10394000109A0F99D31A551A9D42A8BF1D46002DF3
:103950000EDD249AC9F8045001320E442C44072A83
:10396000C9F800602594249200F35F8209F10809E8
:10397000002DACBF5D1B1D46002D7FF7EDAB102D5C
:10398000249BDFF83CA1B3DD57461026DDF828A0C4
:1039900004E009F10809103D102DA8DD01331034B1
:1039A000072B25942493C9F80070C9F80460F0DD52
:1039B00023AA4146504603F0D1F800287FF4C1AA5B
:1039C000259C249B0DF1C009E5E7249A15981799C9
:1039D000C9F8001001320444072A2594C9F80400EC
:1039E000249200F3068209F10809A9E70D990B68F2
:1039F00004310D91FFF7C6BA0D9A136804320D9287
:103A0000099A1A60FFF7D2B9069BD8073FF529AE8D
:103A1000013501340123072D25942495C9F8006050
:103A2000C9F804307FF74FAE23AA41460A9803F045
:103A300095F800287FF485AA259C249D0DF1C009E6
:103A400043E623AA41460A9803F088F800287FF449
:103A500078AA259C249D0DF1C00910E60135344457
:103A6000072D25942495C9F800A0C9F804607FF7B4
:103A70002AAED9E723AA41460A9803F06FF8002836
:103A80007FF45FAA259C249D0DF1C00906E60D99DF
:103A90000B68043100220D91FFF774BA30AEFFF7C6
:103AA0008CBA23AA41460A9803F058F800287FF4FC
:103AB00048AA259C0DF1C009FFF7FDBACDCCCCCCAE
:103AC0008C8F4000119E32463046129E334631465E
:103AD00004F046FE002840F06D8227F020036E1CA3
:103AE0000E9300F0B681472B00F0FB8044F4807306
:103AF0000693129BB3F1000B119B0B93BBBF5B466C
:103B000003F1004B00232D23662F199300F0A381AE
:103B1000462F00F0C9800E9B0B9A452B06BF6B1CED
:103B20000793079521A81EA9079E049003911DA83D
:103B30000221019602905B4600910A9800F0E0FB9A
:103B4000672F064640F0C481E30740F10482079BDB
:103B500033449A46139A0B98149B594604F0CEFDB1
:103B6000002840F04481219B9A4506D930215A1CF7
:103B700021921970219B9A45F9D89B1B10930E9B9B
:103B8000472B00F0CC80652F40F3AF811D9B0F9336
:103B9000662F00F08081109B0F9A1946914200F326
:103BA0006D81E70700F1F58122EAE27307930B923A
:103BB0006727199B002B40F0AC801D469DF86F10C5
:103BC000FFF702BA32465646924601332C44072B81
:103BD00025942493C9F800A0C9F804503FF79EAE7D
:103BE00009F10809A5E623AA41460A9802F0B6FFA2
:103BF00000287FF4A6A90DF1C00993E4249BB149E4
:103C0000C9F80010013301340121072B25942493B6
:103C1000C9F804103BDC09F108092AB9109B1BB94B
:103C2000069BDF077FF598AA249B15981799C9F87A
:103C3000001001330444072B2594C9F80400249391
:103C400000F37B8109F10809002AC0F25181109923
:103C5000C9F8006001330C44072B25942493C9F85C
:103C600004107FF777AA3DE5259BDDF828A0C34621
:103C7000002B3FF467A9504623AA414602F06EFF8D
:103C8000FFF760B94FF0FF330993FFF760B923AA3C
:103C900041460A9802F062FF00287FF452A91D9A5B
:103CA000259C0DF1C009B8E721A81EA90490039135
:103CB0001DA8032102900B9A01955B4600910A987A
:103CC00000F01EFB07950646079B462F06EB030AEE
:103CD0007FF440AF3378302B00F07B811D9B9A44FA
:103CE00038E7002D08BF012500E723AA41460A98BE
:103CF00002F034FF00287FF424A9259C0DF1C009AF
:103D000029E43046FEF79CFF554603460B90FFF72B
:103D100039BB2D218DF86F100025FFF756B91D9B7B
:103D20000F93D91C1A4602DB9D42BFF634AF023F07
:103D30000F9B8DF87C70013B002B1D93BDBF0F9B2B
:103D4000C3F101032D222B22092B8DF87D2040F396
:103D500029810DF18B052846DFF870E100E010465F
:103D60008EFB0312D917C1EBA20101EB8102A3EB79
:103D700042023032092900F8012C0B4600F1FF32D3
:103D8000EDDC30330238D9B2854202F8011C40F232
:103D900067810DF17E00134601E013F8011B00F866
:103DA000011BAB42F9D101339B1A0DF17E02134482
:103DB0001FAA9B1A109A1893012A13440B9340F3DD
:103DC00017810B9B159A13440B9323EAE373079314
:103DD00000230F93EDE623AA41460A9802F0BEFEA7
:103DE00000287FF4AEA8259C0DF1C009FCE45346E1
:103DF000C3E623AA41460A9802F0B0FE00287FF4E9
:103E0000A0A81D9B259C0DF1C00999E5062D28BF92
:103E100006252B460795314635460F96CDF834B02A
:103E200006940B93284EFFF7CFB823AA41460A9871
:103E300002F094FE00287FF484A81D9B109A259C14
:103E4000D31A0DF1C00993E52D218DF86F10FFF7FE
:103E5000FFBA06254AE621A81EA9049003911DA8D1
:103E6000032102900B9A01955B4600910A9800F09D
:103E700047FA0795064600EB050A2BE7159A109BB3
:103E800013440F9A0B93002A40F3BC8023EAE37398
:103E9000079367278DE6002B40F3BC80002D40F090
:103EA0008F80E20700F18C8007930B9381E60795E2
:103EB0000B95CDF834B0054606940F909DF86F1021
:103EC000FFF782B8DC8F4000D48F400067666666DB
:103ED000472F7FF43CAEE0073FF5F6AE219B9B1BDE
:103EE00010930E9B472B3FF41AAF1D9B0F931FE7B8
:103EF00055421032DFF890A131DAB346102756460A
:103F0000DDF828A004E009F10809103D102D24DD9A
:103F100001331034072B2594249389E8C000F2DD87
:103F200023AA4146504602F019FE00287FF409A852
:103F3000259C249B0DF1C009E7E723AA41460A9876
:103F400002F00CFE00287EF4FCAF1D9A259C249BF9
:103F50000DF1C00978E6219B0FE6B2465E460133BB
:103F60002C44072BC9F800A0C9F8045025942493C9
:103F700009F108097FF76BAE23AA41460A9802F0BF
:103F8000EDFD00287EF4DDAF259C249B0DF1C009DA
:103F90005DE60F9B159A13440B9323EAE373079393
:103FA000672706E6303330228DF87F308DF87E208B
:103FB00020ABFDE6324E334B9DF86F10FFF74ABA47
:103FC0000F9B159A13442B440B9323EAE373079337
:103FD000EFE5139A0B98149B594604F08FFB0028C9
:103FE0007FF47CAE079BC3F101031D939A44B1E5B6
:103FF00014F001030F937FF4E4AE0B9B23EAE37309
:104000000793D6E50F9B0B9AC3F101031A4413469D
:104010000B923BE70DB9E30710D5159B01332B44F9
:104020000B9323EAE3730793C3E50D9F39463D687D
:10403000043145EAE5750D91FEF7EABE012333E749
:104040008DF86F00FFF775B98DF86F00FFF751B964
:104050008DF86F00FFF739BA8DF86F00FFF718BAC7
:104060000DF17E03A4E68DF86F00FFF7BBB98DF864
:104070006F00FFF702B98DF86F00FFF7BBB900BF03
:10408000A88F4000A48F40008C8F400010B4044CD7
:1040900013460A460146206810BCFEF73FBE00BF2B
:1040A00040020020F0B50C46ADF26C4D8989666E79
:1040B000E589199621F00201666AADF80E500025D7
:1040C000E769ADF80C10099606951AAE4FF48065B5
:1040D0006946009604960295059507970646FEF7F1
:1040E0001DFE051E07DB3046694601F0D3F80028A7
:1040F00018BF4FF0FF35BDF80C305B0603D5A38920
:1041000043F04003A38128460DF26C4DF0BD00BF83
:1041100038B5304B1B6805460C4613B19A6B002A24
:1041200038D0B4F90C2093B218070CD52069A8B187
:1041300013F001021ED0636900225B42A361A260FA
:10414000F0B1002038BDD9063CD5580726D42069E7
:1041500042F00803A3819BB20028E9D103F4207246
:10416000B2F5007FE4D02846214601F00FFDA38977
:104170002069DDE7990758BF6269A2600028E0D195
:10418000B4F90C301A06DDD543F04003A3814FF09B
:10419000FF3038BD184601F08FF9C2E7216B51B1ED
:1041A00004F14003994204D0284601F0F5F9B4F92E
:1041B0000C200023236300232069636022F0240283
:1041C0002060C5E742F0400209232B604FF0FF302A
:1041D000A28138BD4002002002690B69934200F3BE
:1041E0008D802DE9F04F03F1FF3801F1140700F144
:1041F000140B57F828205BF828304FEA880483B066
:104200000132B3FBF2F90BEB0403009407EB040A51
:104210000193B9F1000F39D000252E46BC46DE4689
:104220005CF8044BDEF80030A2B209FB0255220C08
:104230002C0C09FB0242ADB2751B96B2C6EB1346BD
:1042400015FA83F306EB23469BB243EA0643E245A5
:104250004FEA12454EF8043B4FEA2646E0D2009B57
:104260005BF8033093B9019C231F9B450CD254F893
:10427000043C4BB9A4F1080302E01A68043B1AB9E4
:104280009B4508F1FF38F8D3C0F81080044601F0D0
:10429000C7FF00282EDB09F101095D46002357F80E
:1042A000041B28688AB29A1A0B0C12FA80F2C3EB2C
:1042B000104303EB224392B242EA0342BA4545F867
:1042C000042B4FEA2343EAD25BF828200BEB880348
:1042D00082B91A1F93450BD253F8042C42B9083BFC
:1042E00002E01A68043B1AB99B4508F1FF38F8D37D
:1042F000C4F81080484603B0BDE8F08F0020704736
:104300002DE9F04F016C9BB00446279E92469B46D8
:1043100041B1426C4A60012393408B6001F05AFD29
:1043200000232364BBF1000F5D4635DB00233360BF
:104330009D4BAB4315D0504659460022002304F054
:10434000DDF9804600282DD0269A01231360289B92
:10435000002B00F0BD809548186001381BB0BDE807
:10436000F08F269A42F20F731360BAF1000F0DD14D
:10437000C5F3130555B9289B8D48002BEED000F1ED
:104380000803289A13601BB0BDE8F08F289B89486A
:10439000002BE3D0C31CF4E701232BF0004533606E
:1043A000AB46C5E718AA19AB0192009352465B468B
:1043B000204602F05FF82B0D814671D0CBF313023B
:1043C00042F07F51189FCDF850805046A3F2FF363F
:1043D00041F440110022784B03F074FD6CA3D3E943
:1043E000002303F023FF6CA3D3E9002303F06CFD4B
:1043F000CDE90201304603F0B3FE69A3D3E90023FF
:1044000003F014FF02460B46DDE9020103F05CFDF8
:10441000CDE9040104F0BAF9002202900023DDE99D
:10442000040104F075F9002840F07381029D162DF7
:1044300000F25D81614B03EBC503D3E900015246F5
:104440005B4604F083F9002800F0C5816B1E0293DF
:1044500000230E93BF1B7B1E069300F154810023A3
:104460000893029B002BC0F24581069A0D931146DA
:104470001944002306910C93249B092B2AD8052B61
:1044800040F35B86043B24930025249B023B032BD3
:1044900000F24286DFE813F0D403C902DF036104AF
:1044A000189F199E3E4406F23243202B40F38E8122
:1044B000C3F1400306F212409D402AFA00F028435F
:1044C00003F03EFE0123013EA1F1F871149381E750
:1044D0003B4843E7002161642046249101F054FCED
:1044E0004FF0FF330A93249A0F93012304902592EF
:1044F00020640B93199B002BC0F2D980029A0E2ADC
:1045000000F3D5802D4B03EBC203D3E90023CDE9A3
:104510000823259B002BC0F2BA83DDE908565046DC
:104520002A463346594603F0ABFF04F02FF9804684
:1045300003F016FE2A46334603F078FE0B46024689
:104540005946504603F0BEFC049D08F130032B7021
:104550000A9B012B06460F4605F1010568D0002293
:10456000184B03F063FE0022002306460F4604F0BA
:10457000C5F8002840F08880CDF82C904FF0000A54
:10458000DFF840B00C94DDE9088928E0AFF3008043
:1045900061436F63A787D23FB3C8608B288AC63F49
:1045A000FB799F501344D33F0000F07FDD8F400024
:1045B000E08F4000EC8F40000000F83F009040008A
:1045C000DC8F40000000244003F030FE0022002376
:1045D00006460F4604F092F8002840F0C183424698
:1045E0004B463046394603F04BFF04F0CFF8044603
:1045F00003F0B6FD42464B4603F018FE02460B465A
:104600003046394603F05EFC04F1300E049E05F896
:1046100001EBA5EB060E0A9EB645CDE90601524612
:104620005B46D1D1A046DDF82C900C9C06460F4687
:1046300032463B463046394603F046FC06460F46B6
:1046400002460B46DDE9080104F062F848B932463B
:104650003B46DDE9080104F051F8A8B118F0010F5C
:1046600012D015F8018C049A6B1E04E09A4200F0F7
:10467000008413F8018DB8F1390F03F10105F5D06D
:1046800008F1010883F800804946204601F0A2FBAA
:104690000022029B2A70269A01331360289B002B6C
:1046A00000F09E8304981D601BB0BDE8F08F0B9A4C
:1046B000002A3ED0249A012A40F311830A9B0C9AC7
:1046C0005F1EBA42C0F28F83D71B0A9B002BC0F239
:1046D0008A84089D0A9B089A1A440892069A012126
:1046E0001A442046069201F05DFC064624E00123B0
:1046F0000E93AFE6089A029BD21A5B420C930023FA
:1047000008920D93B8E6C7F10103089300230693BE
:10471000A7E6029D284603F023FD02460B46DDE98D
:10472000040103F0EBFF00287FF480AE6B1E0293C0
:104730007CE60C9F089D0B9E002D0CDD0699002940
:104740000B4608DDA942089AA8BF2B46D21AED1ADB
:10475000CB1A089206930C9BD3B10B9B002B00F055
:10476000B782002F10DD31463A46204601F0B6FCF4
:104770004A4601460646204601F01EFC4946804650
:10478000204601F027FBC1460C9BDA1B40F0A182BA
:104790000121204601F006FC0D9B002B80461CDD0C
:1047A00001461A46204601F099FC249B012B8046C5
:1047B00040F3548200230C93D8F8103008EB8303A5
:1047C000186901F09FFBC0F1200010E0C3F1200543
:1047D0000AFA05F074E60E903CE6249B012B40F3A8
:1047E000878200230C930D9B0120002BE4D1069AB5
:1047F000104410F01F0000F0A180C0F12003042B32
:1048000040F39E84089BC0F11C00034408931346A8
:10481000034405440693089B002B05DD49461A46D0
:10482000204601F0ABFC8146069B002B05DD41468E
:104830001A46204601F0A2FC80460E9B002B40F059
:1048400086800A9B002B40F366820B9B002B00F0B6
:104850009880002D05DD31462A46204601F08EFC69
:1048600006460C9B002B40F0368306960A9B049A62
:10487000DDF818B0013BD3180B930AF001030C9339
:104880001746C24651464846FFF7A6FC3146054644
:10489000484601F0C5FC5A460A905146204601F0B0
:1048A000DBFCC268804605F13003002A40F02B8211
:1048B00001464846089301F0B3FC41460690204665
:1048C00001F088FA069A089B32B9249921B90C9A0A
:1048D000002A00F0EF83249A0A990029C0F29E82F0
:1048E00005D1249919B90C99002900F09782002A62
:1048F00000F305830B9A3B7007F101089742454688
:1049000000F00B83494600230A22204601F06CFA8E
:104910005E45814631464FF000034FF00A022046C3
:1049200000F0EB8101F060FA5946064600230A22A6
:10493000204601F059FA47468346A3E71C20089B0E
:1049400003440893069B03440544069363E74146EA
:10495000484601F065FC0028BFF673AF029F494648
:1049600000230A222046013F029701F03DFA0B9BEB
:104970008146002B40F0B6830F9B002B40F3BF8392
:104980000A93DDF810B00A9F5D4602E001F02CFAB0
:10499000814641464846FFF71FFC00F1300A05F802
:1049A00001ABA5EB0B03BB424FF00A024FF0000333
:1049B00049462046EADB049B0A9A012AACBF9B18B1
:1049C00001331D464FF0000B49460122204601F0FD
:1049D000D5FB4146814601F023FC002840F33C8290
:1049E00015F8012C04996B1E04E08B4200F0AE8197
:1049F00013F8012D392A03F10105F6D001321A709E
:104A00004146204601F0E6F9002E3FF43DAEBBF1F1
:104A1000000F05D0B34503D05946204601F0DAF91E
:104A20003146204601F0D6F92EE600230B93029B77
:104A3000259A13440F930133012B1F461E460A93F8
:104A4000B8BF01270021172F61640AD9012204236E
:104A50005B0003F11400B842114602F10102F7D9DC
:104A60006164204601F090F90E2E049020643FF618
:104A700041AD002D3FF43EAD02990029CDE910ABC8
:104A800040F30182B84B01F00F020D1103EBC2039A
:104A9000E906D3E9006740F1AE81B44B5046594670
:104AA000D3E9082303F0ECFCCDE9120105F00F0572
:104AB0004FF0030A8DB1DFF8B482EA0709D530461A
:104AC0003946D8E9002303F0B1FB0AF1010A064692
:104AD0000F466D1008F10808EFD13B463246DDE97C
:104AE000120103F0CDFC074688460E9B43B100221D
:104AF0009F4B3846414603F00BFE002840F085826C
:104B0000504603F02DFB3A46434603F08FFB994B8A
:104B1000002203F0D9F90A9B0546A1F15076002B3B
:104B200000F03E81029B15930A9B12930B9B002B76
:104B300000F0F981129A8C4B8F4903EBC20353E9C1
:104B40000223002003F09CFC2A46334603F0BAF906
:104B500082468B463846414603F018FE054603F070
:104B6000FFFA02460B463846414603F0ABF93035B2
:104B70005FFA85F8049D06460F4685F800800246D8
:104B80000B4650465946013503F0E0FD002854D14C
:104B900032463B460020764903F094F902460B4624
:104BA0005046594603F0D2FD002840F06F82129A19
:104BB000012A00F01181129B049ACDF84890134409
:104BC00099460DE000206A4903F07CF952465B46A5
:104BD00003F09EFD002840F057824D4500F0FA801A
:104BE000504659460022654B03F020FB0022634BE0
:104BF00082468B463046394603F018FB0F46064680
:104C000003F0C4FD804603F0ABFA02460B46304683
:104C1000394603F057F908F130085FFA88F8524630
:104C20005B4605F8018B06460F4603F071FD3246E0
:104C30003B460028C6D0DDF84890159B029323E53B
:104C400000230B93259B002B40F3DC801F461E4660
:104C50000F930A93F6E601230B93F3E7BAF1000FE3
:104C60007FF4A8ADCBF31303002B7FF4BAAD2BF088
:104C700000473F0D3F05002F00F00C82089B0133D9
:104C80000893069B0133069301230C93ABE50A9B23
:104C9000002B3FF742AC40F021820022384BDDE987
:104CA000080103F0C3FA52465B4603F045FDDDF808
:104CB00028804646002841D0259B049DDB43029373
:104CC0004146204601F086F8002E3FF4DDACA7E611
:104CD0000C9A4946204601F001FA814658E5149A9B
:104CE000002A00F0868103F233430C9F089DF2E412
:104CF000BAF1000F7FF475ADB4E701F075F84746DF
:104D000006468346BEE501462046069301F062F85A
:104D10000122069BE0E5249B022B7FF796AD0A9BC0
:104D2000002BC9D141460522204601F05DF801461D
:104D30008046484601F074FA0028BDDD029A0499C5
:104D40003123013202920B704D1CB9E7029A0132F5
:104D50000292049A3123137052E601230B9366E604
:104D6000DDF82C900C9C8FE400904000F090400007
:104D70000000F03F00001C400000E03F0000244025
:104D800000001440504603F0EBF93A46434603F066
:104D90004DFA0022C14B03F097F80546A1F1507679
:104DA00041460022BE4B384603F08CF82A46334673
:104DB00082468B4603F0CAFC8046002840F00F81F3
:104DC0002A4606F100435046594603F0A1FC18B1AB
:104DD000464671E7DDF84890DDE910ABFFF78ABB86
:104DE0000498FFF7BBBA0C9B0D9A0C97FB1A1A4458
:104DF0000D92002769E4DDE910234FF0020ACDE9A6
:104E0000122357E600216164204600F0BDFF012314
:104E100004900A93206425930F932AE6002AD04633
:104E2000CDF818B09A4611DD49460122204601F01E
:104E3000A5F94146814601F0F3F9002840F3478186
:104E4000BAF1390F00F0068105F1310AB34687F84F
:104E500000A07D1C069ED3E504D11AF0010F01D0FD
:104E6000BEE5154615F8013C302B05F1FF32F8D0B0
:104E7000C6E5049930220A70029A15F8018C0132B5
:104E80000292FFF7FDBB00F0BB80029B5D42854BA9
:104E900005F00F0203EBC203D3E90023DDE91001A3
:104EA00003F0C4F92D110746884600F02D817E4E8F
:104EB0004FF0020AEB0709D538464146D6E90023F0
:104EC00003F0B4F90AF1010A074688466D1006F1AD
:104ED0000806EFD109E67168204600F055FF3369F6
:104EE00002339A00054606F10C010C30FDF740FD37
:104EF00029460122204601F041F90690B6E4392BFB
:104F0000CDF818B0D04600F0A58003F1010AB346F1
:104F100087F800A07D1C069E72E55A46D046B3462F
:104F20009A46164650E5129B5E4901EBC3012A469C
:104F3000334651E9020103F079F9CDE9160138460B
:104F4000414603F023FC054603F00AF90B460246EE
:104F50004146384602F0B6FF129B0F4604993035A1
:104F6000012B0D70064601F1010526D0129B049A13
:104F7000DFF83CB1CDF8489013444FF0000A994651
:104F800052465B463046394603F050F90F46064616
:104F900003F0FCFB804603F0E3F808F1300802461A
:104FA0000B463046394602F08DFF05F8018B4D4522
:104FB00006460F46E4D1DDF848903C4B0022DDE97F
:104FC000160102F081FF32463B4603F0A1FB0028A8
:104FD00046D0159B029315F8018CFFF744BB4FF0A8
:104FE00000084646AAE6089B0A9A9D1A0023FFF786
:104FF00072BB189B0C9F089DC3F13603FFF76BBB78
:10500000DDE910784FF0020A6FE50A9B002B3FF4B0
:10501000B9AE0F9B002B7FF7DFAE0022244B384642
:10502000414603F003F9074688460AF1010003F000
:1050300097F83A46434603F0F9F80022174B02F07E
:1050400043FF029A0F9B1293013A0546A1F1507655
:1050500015926BE53922B3463A70069E7D1CC1E479
:10506000DDE916230020114902F02CFF32463B46B1
:1050700003F06CFB08B9AFE6154615F8013C302B80
:1050800005F1FF32F8D0D8E5DDF84890159B029382
:10509000FFF7E9BA0C97FFF7A6BB00BF00001C4062
:1050A0000000144000904000F09040000000E03FFD
:1050B00000002440392BCDF818B0D046DDF828B0D8
:1050C0009A46C7D0BBF1000F3FF7BEAEBEE67FF4F5
:1050D000BDAE1AF0010F3FF4B9AEB1E64FF00008D3
:1050E0004646E9E5314600230A22204600F07CFED0
:1050F0000F9B002B06460ADD0A93FFF7AABB249BF1
:10510000022B23DC0F9B3BE44FF0020AEDE4249BCF
:10511000022B1BDC0F9BEFE7002565642946204628
:1051200000F032FE4FF0FF330A930F9301230490F7
:10513000259520640B93FFF7DDB90125FFF7A5B98D
:105140003FF469ABC0F13C00FFF7F9BB0F9B0A933A
:10515000E5E500BFB1F90C309AB22DE9F0410D46FA
:10516000110780463AD46A6843F40063002AAB8191
:105170006FDDAC6A002C49D000229BB2D8F80060E9
:10518000C8F8002013F4805267D02A6D5F0705D558
:1051900069682B6B521A0BB1EB6BD21A0023E969C9
:1051A0004046A047441C3CD0B5F90C302A692A601F
:1051B00023F400630022AB81DB046A6047D4296BCF
:1051C000C8F8006011B305F14003994202D040468F
:1051D00000F0E2F900202863BDE8F0812E69AEB14D
:1051E0002C682E6091070CBF6B690023A41BAB6079
:1051F0000AE0234632466F6AE9694046B84700280C
:10520000A4EB0004064404DD002CF2DC0020BDE821
:10521000F081AB8943F04003AB814FF0FF30BDE834
:10522000F081D8F800401D2CF3D8194BE340DB4344
:1052300013F00103EDD1B5F90C206B6022F400638B
:105240002969AB81DA042960B9D5002CB7D128656A
:10525000B5E7EA6B002A8CDCD8E70123E969404610
:10526000A047431C024602D0AB89AC6A8EE7D8F84F
:105270000030002BF8D01D2B01D0162B02D1C8F81E
:105280000060C3E7AB8943F04003AB81BDE8F08128
:105290000100402010B5044682B008B1836B53B1C1
:1052A000B1F90C0008B902B010BD204602B0BDE84B
:1052B0001040FFF74FBF019100F0FEF80199EFE7B2
:1052C00020B1054B01461868FFF7E4BF034B0449C2
:1052D000186800F0E5BB00BF40020020748F40005A
:1052E0009552400000207047014900F0D9BB00BF33
:1052F0000D7740002DE9F04F354B4568C36300241E
:10530000074600F53B7204230321C0F8E412C0F8FD
:10531000E822C0F8E04283B02C606C60AC606C6640
:10532000EC812C616C61AC61AB81214605F15C00C4
:105330000822FDF7B7FBBE68DFF898B0DFF898A049
:10534000DFF89890DFF89880C5F820B00123092293
:10535000C5F824A0C5F82890C5F82C80ED61214639
:10536000F381B28106F15C0034607460B4607466ED
:1053700034617461B46108220193FDF793FBFD6809
:10538000F66112200222C6F820B0C6F824A0C6F8A2
:105390002890C6F82C802146A881EA812C606C6098
:1053A000AC606C662C616C61AC6105F15C0008223C
:1053B000FDF778FB019BED61C5F820B0C5F824A08E
:1053C000C5F82890C5F82C80BB6303B0BDE8F08F0A
:1053D000E9524000516A4000796A4000B56A4000D5
:1053E000D56A40000020704770B54A1E682505FB4D
:1053F00002F50E4605F17401FDF710F8044640B1C0
:1054000000210C30666005F168022160A060FDF7A4
:1054100049FB204670BD00BF214B70B51D68AB6BCA
:105420000646002B2CD005F538756B68AC68013B3F
:1054300005D521E0013B5A1C04F168041CD0B4F9E5
:105440000C20002AF6D100254FF6FF720123E281DD
:10545000A38165662560A560656025616561A561BC
:105460002946082204F15C00FDF71CFB25636563F7
:105470006564A564204670BD286828B10546D4E758
:105480002846FFF737FFCEE704213046FFF7ACFF91
:1054900028600028F2D10C2304463360EAE700BFFD
:1054A000748F4000024B0349186800F0F9BA00BF3E
:1054B000748F40000D774000836B03B1704719E78C
:1054C000704700BF704700BF704700BF704700BF04
:1054D000024B0349186800F0BDBA00BF400200202B
:1054E000E5534000024B0349186800F0B3BA00BF0F
:1054F00040020020E5524000F8B5244F0C46064615
:10550000FDF71EFBBB685D68C4F57E610F3125F0B9
:105510000305294421F47F6121F00F01A1F5805496
:10552000B4F5805F07DB00213046FDF76DFBBB68FB
:105530002B44984204D03046FDF704FB0020F8BD10
:1055400061423046FDF760FB01300DD0104BBA6868
:1055500019682D1B45F001053046091B556019607F
:10556000FDF7F0FA0120F8BD00213046FDF74CFBB5
:10557000BA68831A0F2BDEDD064C0549246843F018
:105580000103001B53600860D5E700BF70060020D0
:10559000F40B0020780A0020002944D02DE9F041C6
:1055A0000D468046FDF7CCFA55F8047C694927F092
:1055B0000103A5F10804E2188E685068B24220F099
:1055C00003005ED0FE0750600BD455F8087CE41B46
:1055D00001F1080EA56875453B446DD0E768EF60A2
:1055E000BD6015186D68ED073ED543F0010262609D
:1055F000E350B3F5007F17D2DB08581C9A104D68B2
:1056000051F83070A7600123934001EBC0022B4397
:10561000083AE2604B6041F83040FC604046BDE82B
:10562000F041FDF78FBA70475A0A042A52D89A09F6
:1056300002F13907FF0002F13805C819CA590838C4
:1056400090424FD0516821F003018B4232D29268D0
:105650009042F7D1C368A060E3609C60C46040469C
:10566000BDE8F041FDF76EBA95683B4FBD4203447B
:1056700040D0D068E86043F0010285606260E3508A
:10568000B7E7FF07034407D455F8082CA41A1344BE
:10569000A068E268C2609060304A126843F001007E
:1056A000934260608C60B9D32D4B40461968FFF778
:1056B00023FFB3E71046CDE711184968C90744D462
:1056C0009168D268CA60034443F001009160606051
:1056D000E350A3E7142A16D802F15C07FF0002F199
:1056E0005B05AAE7AA1001234D6893402B434B604A
:1056F0000346B0E743F001024C610C61E560A56030
:105700006260E3508AE7542A06D81A0B02F16F0749
:10571000FF0002F16E0590E7B2F5AA7F06D8DA0B1A
:1057200002F17807FF0002F1770586E740F2545056
:10573000824206D89A0C02F17D07FF0002F17C0537
:105740007BE74FF47E777E2577E743F001016160C8
:10575000136063E770060020780600207C0A0020B2
:10576000F00B00209368002B73D02DE9F04F8B894C
:1057700083B00C4619070090164626D5226922B33D
:1057800013F0020035682CD04FF00009B04FC84626
:10579000B246B84543464A4628BF3B460098B8F152
:1057A000000F50D0E169666AB047002858DDDAF88A
:1057B00008301B1A8144A8EB0008CAF80830002BF7
:1057C000E7D1002003B0BDE8F08F21460098FEF736
:1057D0009FFC002840F03381A389356813F0020054
:1057E000D2D113F0010945D14F46019637B39A053E
:1057F000D4F8088040F183804745C346C0F0AB80B1
:1058000013F4906F40F0AC802068BA465A4649467F
:1058100000F056FAA2682368A2EB08025B44A2607B
:105820002360019A9368A3EB0A03D144A7EB0A070C
:105830009360002BC5D0A389002FD8D1D5F8009054
:105840006F680835D2E7D5F80090D5F804800835A0
:105850009FE70020704721460098FFF71BFD70B3BB
:10586000B4F90C3043F040034FF0FF30A38103B094
:10587000BDE8F08F814633464E46A8469A464D46CF
:105880004EB380B3206823696269B145CB4628BF17
:10589000B34698425F4604D9A36813449B4500F37E
:1058A000A68093454BDB1346676AE16900982A4658
:1058B000B847071ED4DDB9EB0709CCD00120DAF8D0
:1058C0000830DB1B3D44F61BCAF80830002B3FF4C0
:1058D00078AF002ED5D108F1080313E9600098468F
:1058E0000833002EF9D032460A21284600F098F9F4
:1058F000002800F0A1800130A0EB0509C2E7206874
:105900002369984202D863699F425DD2B84528BF97
:10591000B8464246494600F0D3F9A3682268A3EB93
:1059200008034244A36022600BB1C24679E72146D6
:105930000098FFF7AFFC002892D1C24671E75A46A3
:10594000294600F0BDF9A2682368A2EB0B025B4474
:10595000A2602360AFE72068B846BA46BB4655E769
:1059600062692068216902EB4208A0EB010A08EB9A
:10597000D8780AF101004FEA6808384440454246A9
:1059800084BF804642465B0544D511460098FCF72B
:1059900045FD8346002855D052462169FCF7E8FFB3
:1059A000A38923F4906343F08003A3810BEB0A00E7
:1059B000A8EB0A03C4F810B0C4F814802060A360F8
:1059C000B846BA46BB4621E76FF00041B94228BF4E
:1059D00039464A4691FBF3F10098666A03FB01F3EE
:1059E000E169B047B0F1000A3FF71BAF38E71A464C
:1059F0002946019300F064F92268019B00981A443B
:105A000022602146FFF746FC019B00287FF428AF67
:105A10001F4650E7009800F023FE83460028C5D1BA
:105A2000009D21692846FFF7B7FDB4F90C300C2220
:105A300023F080032A6015E706F1010922E74FF001
:105A4000FF30BFE6009A0C231360B4F90C3009E76D
:105A500000FCFF7F2DE9F04110F538771BD0884618
:105A600000267D68BC68013D0FD4A389012B05F198
:105A7000FF3506D9B4F90E300133204601D0C047B6
:105A800006436B1C04F16804EFD13F68002FE8D196
:105A90003046BDE8F0813E463046BDE8F08100BFAB
:105AA0002DE9F84310F538771FD0884606464FF0A9
:105AB00000097D68BC68013D11D4A389012B05F163
:105AC000FF3508D9B4F90E3001332146304602D0F3
:105AD000C04749EA00096B1C04F16804EDD13F6836
