:100000000C9491000C94AE000C94AE000C94AE00D5
:100010000C94AE000C94AE000C94AE000C94AE00A8
:100020000C94AE000C94AE000C945E050C949E01F2
:100030000C94C4010C94AE000C94AE000C944503D7
:100040000C94AE000C94AE000C94AE000C94AE0078
:100050000C94AE000C94AE000C94AE000C94100600
:100060000C94AE000C94AE000C94AE000C94AE0058
:100070000C94AE000001000003011200020000D544
:10008000002E00030000D1000401030904B900168A
:1000900002030904970020200346006C00690070E9
:1000A000007000650072003A002000430061007299
:1000B0000062006F006E000000160366006C0069AD
:1000C0000070007000650072002E0069006F000073
:1000D000000403090409022E00010100C0FA09040A
:1000E000000004FF0101000705810310000107055E
:1000F0000203100001070583024000010705040206
:1001000040000112010002FF000010C01680040030
:10011000010102000101C11201C0120181320180FE
:10012000320011241FBECFEFD2E0DEBFCDBF11E001
:10013000A0E0B1E0ECEAFDE202C005900D92AA3722
:10014000B107D9F722E0AAE7B1E001C01D92A03AB9
:10015000B207E1F70E940E150C94D4160C9400001F
:10016000EF92FF920F931F93CF93DF931F92CDB720
:10017000DEB720917A01211109C08FEF0F90DF9136
:10018000CF911F910F91FF90EF90089524E020935D
:10019000E9008A019B01015C1F4F2F4F3F4FE6E0B2
:1001A0003695279517950795EA95D1F7A0E0B0E029
:1001B0003BE6A017B10714F080E0E0CF2091E40007
:1001C000285329832091E80025FF0DC0FC017C0104
:1001D00080E4E80EF11CCF01EE15FF05D1F4309359
:1001E000E8001196E6CF20917A01222329F0E091D0
:1001F000E4002981E213E6CF8EE18093EA001092B9
:10020000EA009BE68091E80085FFB7CF9093E80075
:10021000F9CF411551056105710509F38091F10090
:1002200081934150510961097109D5CFEF92FF9235
:100230000F931F93CF93DF931F92CDB7DEB720911B
:100240007A01211109C08FEF0F90DF91CF911F919B
:100250000F91FF90EF90089523E02093E9008A0129
:100260009B01015C1F4F2F4F3F4FE6E036952795CE
:1002700017950795EA95D1F7A0E0B0E03AE3A0170B
:10028000B10714F080E0E0CF2091E40028532983E7
:100290002091E80025FF0DC0FC017C0180E4E80E00
:1002A000F11CCF01EE15FF05D1F43093E800119653
:1002B000E6CF20917A01222329F0E091E400298100
:1002C000E213E6CF8EE18093EA001092EA009AE30F
:1002D0008091E80085FFB7CF9093E800F9CF4115F2
:1002E00051056105710509F381918093F100415039
:1002F000510961097109D5CF3E9880E090E00895D9
:1003000086B186FB882780F908958091E80080FFF8
:10031000FCCF089580EA8093D80086E089BD09B4B7
:1003200000FEFDCF80E88093D8001092E00010928C
:100330007A018CE08093E200789408951F920F92E6
:100340000FB60F9211248F939F938091E10010922A
:10035000E10083FF0FC01092E90091E09093EB0061
:100360001092EC0092E19093ED0098E09093F000F1
:1003700010927A0182FD80917A019F918F910F9066
:100380000FBE0F901F9018951F920F920FB60F92ED
:100390001124EF92FF920F931F932F933F934F934C
:1003A0005F936F937F938F939F93AF93BF93CF93FD
:1003B000DF93EF93FF9310927A011092E9008091FE
:1003C000E80083FF75C00091F1001091F100E0900A
:1003D000F1008091F100F12CF82AC091F100809198
:1003E000F100D0E0D82B8091F1006091F10092EF04
:1003F0009093E800163009F065C024E730E047E943
:1004000050E0F901A591B491EA16FB0609F04AC043
:10041000F9013296A591B491CA17DB0709F042C0E1
:10042000F901349645915491F9013696E49190E0A2
:10043000962B8F3F910519F010F08FEF90E0E817A1
:1004400008F48E2F3EEF9091E800292F2570D9F304
:1004500092FD11C0982F813108F090E1FA01292F07
:1004600021112AC0490F511D891B3093E8008111C9
:10047000EACF903141F3FF91EF91DF91CF91BF919E
:10048000AF919F918F917F916F915F914F913F912C
:100490002F911F910F91FF90EF900F900FBE0F9033
:1004A0001F901895295F3F4F4217530709F0A9CFB6
:1004B00081E28093EB00DFCF64916093F1002150E3
:1004C0003196CECF153051F48EEF8093E8000E9424
:1004D00085018E2D80688093E300CDCF193049F5DA
:1004E0000111E6CFE0927A018EEF8093E80021E0DF
:1004F00085E191E02093E900AC014F5F5F4FFC0183
:1005000034913093EB00332391F0FA0144914093FE
:10051000EC003196E4910396E093ED002F5F2530D7
:1005200049F78EE18093EA001092EA00A4CFCA0155
:10053000F5CF183069F4003809F0BACF0E94850170
:1005400080917A018093F1008EEF8093E80093CF41
:10055000111112C00E948501023849F4C093E900CC
:100560001091EB0015FB112710F91092E900109380
:10057000F1001092F100E8CF812F8D7F813009F0DA
:1005800097CF023009F094CFEF2809F091CFCF77C1
:100590008FEF8C0F843008F08BCF8EEF8093E800C4
:1005A000C093E900133009F483CF89E18093EB0015
:1005B00081E090E001C0880FCA95EAF7B3CF80E0F0
:1005C00090E008958AB1682B6AB98AB120952823F2
:1005D0002AB908958BB1682B6BB98BB1209528236C
:1005E0002BB9089569B170E080E090E008953D9ADC
:1005F00080E090E00895E1E8F0E0908198609083D9
:1006000029E03DE33093890020938800AFE6B0E015
:100610009C9192609C9390819260908380937E01E4
:1006200060937B0140937C0181E0809300010895F9
:10063000CF93DF9300D01F92CDB7DEB769838A8353
:100640004B83FE013196AE014C5F5F4F619185B1E6
:1006500028B1806290E030E02F7D78E088B9660FA5
:100660007A9500C008F028B900C0000028B921F030
:1006700000C000C000C0F2CFE417F50739F70F90B3
:100680000F900F90DF91CF9108951F920F920FB6A8
:100690000F9211242F933F934F935F936F937F9308
:1006A0008F939F93AF93BF93EF93FF9340917C0100
:1006B00080910001480F40937C0160917B01809103
:1006C0007E010E94180380917C0187FF04C08FEF98
:1006D0008093000102C08130D9F3FF91EF91BF9167
:1006E000AF919F918F917F916F915F914F913F91CA
:1006F0002F910F900FBE0F901F901895089580E0D6
:10070000089580E090E00895CB01BA01A9010E940C
:100710001601082E000C990B0895CB01BA01A9010E
:100720000E94B000082E000C990B089580E00895F7
:1007300080E090E00895CF93DF9300D0CDB7DEB78F
:10074000809181008860809381008AE698E190938F
:10075000890080938800809181008460809381006B
:1007600080E090E59A8389838091E80085FF0AC044
:10077000B19A1092810080E090E00F900F90DF918D
:10078000CF91089580917A01882329F0B19BECCF15
:10079000B19A109281008FEF9FEFEFCF289A2098A7
:1007A000509A589A3A9A429A80E090E008950E94AE
:1007B000F303209A28980895289A20980C94FD0312
:1007C0000E94F303209A289A28980895089584B1E6
:1007D000897F84B98CB58C608CBD8DB581608DBDF1
:1007E00080E090E0089584B1866084B98CB5806122
:1007F0008CBD8CB580648CBD08958CB58F7B8CBD11
:100800008CB58F7E8CBD84B1897F84B908958DB5F8
:10081000807808958EBD0DB407FEFDCF089580E069
:100820000E940A048EB50895CF92DF92EF92FF9254
:10083000CF93DF936A017B01EC01C114D104E10481
:10084000F10449F480E090E0DF91CF91FF90EF90C8
:10085000DF90CF90089589910E940A0481E0C81A20
:10086000D108E108F108E9CFCF92DF92EF92FF9231
:10087000CF93DF936A017B01EC01C114D104E10441
:10088000F10449F480E090E0DF91CF91FF90EF9088
:10089000DF90CF9008950E940F04899381E0C81AD9
:1008A000D108E108F108E9CFCF93DF93CDB7DEB7E8
:1008B000C854D1090FB6F894DEBF0FBECDBF20E4F7
:1008C00030E040E050E0BE016F5F7F4F81E091E09B
:1008D0000E948D0387FD14C0BE016F5B7F4FCE0168
:1008E00001960E946D1428E030E040E050E0BE0127
:1008F0006F5B7F4F81E091E00E9484030E94B911F9
:10090000A895DDCF0E945404AF92BF92CF92DF92A0
:10091000EF92FF920F931F93CF93DF93EC01CE8062
:10092000DF80E884F984C6010E948F155C01892B61
:1009300001F51F921F921F921F921F9281E08F93C9
:100940000E949A110F900F900F900F900F900F90A0
:10095000CC24CA94DC2C7601C701B601DF91CF917B
:100960001F910F91FF90EF90DF90CF90BF90AF90CD
:1009700008958091260190912701DC011A96ED914E
:10098000FC911B97A7019601B5010995BA8AA98A1E
:100990006E01B1E1CB0ED11CEC84FD840E851F8568
:1009A0006A8570E080E090E028894B850E94DA1328
:1009B0006B017C01C5010E942816CECFAF92BF9279
:1009C000CF92DF92EF92FF920F931F93CF93DF931B
:1009D000EC018E819F810E948F155C01009701F5CB
:1009E0001F921F921F921F921F9281E08F930E946D
:1009F0009A110F900F900F900F900F900F90CC24A2
:100A0000CA94DC2C7601C701B601DF91CF911F910A
:100A10000F91FF90EF90DF90CF90BF90AF9008952F
:100A20009A8B898B6E0181E1C80ED11CEC84FD8408
:100A30000E851F856A8570E080E090E028894B85EF
:100A40000E94DA136B017C018091260190912701AD
:100A50002E813F8148855985DC011896ED91FC91E6
:100A60001997B5010995C5010E942816CCCFE1E67A
:100A7000F0E080E8808310820E948A010E94650570
:100A80009DE088E10FB6F894A895809360000FBEB2
:100A900090936000599A519A5C98549A5D9A559A2D
:100AA0005E98569A7894089540E060E080E00C9457
:100AB00018030E9454050E942306FFCF1F920F9235
:100AC0000FB60F9211240E9459051092CD0010927A
:100AD000CC0082E08093C80086E08093CA0088E161
:100AE0008093C90080E090E0089588E08093CC0076
:100AF000E8ECF0E080818D7F8083089588E1809329
:100B0000C9000895E9ECF0E08081877E80838081D0
:100B10008F77808308958091C800807808959091A0
:100B2000C80095FFFCCF8093CE000895CF93DF934C
:100B300000D000D0CDB7DEB769837A838B839C83E6
:100B40008091C80087FF09C08091CE000F900F9060
:100B50000F900F90DF91CF91089589819A81AB8199
:100B6000BC81AC01BD014150510961097109498342
:100B70005A836B837C83892B8A2B8B2B09F7E4CFD9
:100B8000CF92DF92EF92FF92CF93DF936A017B01C6
:100B9000EC01C114D104E104F10449F480E090E0D7
:100BA000DF91CF91FF90EF90DF90CF9008958991E2
:100BB0000E948F0581E0C81AD108E108F108E9CF49
:100BC0008F929F92AF92BF92CF92DF92EF92FF925D
:100BD0000F931F93CF93DF936A017B014801590163
:100BE000EC01C114D104E104F10479F480E090E057
:100BF000DF91CF911F910F91FF90EF90DF90CF90F9
:100C0000BF90AF909F908F900895C501B4010E944E
:100C10009605899381E0C81AD108E108F108E1CF6F
:100C20001F920F920FB60F9211248F938091C800DC
:100C300087FDFCCF8F910F900FBE0F901F901895DE
:100C400080E090E0089598E088E10FB6F894A895C8
:100C5000809360000FBE9093600008952F923F92A2
:100C60004F925F926F927F928F929F92AF92BF92BC
:100C7000CF92DF92EF92FF920F931F93CF93DF9368
:100C8000CDB7DEB768970FB6F894DEBF0FBECDBF05
:100C90004B015C01643071058105910528F484E005
:100CA000882E912CA12CB12CC0907F01D090800176
:100CB000E0908101F090820128E030E040E050E0D7
:100CC000C701B6010E94D10E988F8F8B412C512CF9
:100CD00032011F86188A198A1A8A19861A861B8673
:100CE0001C8600E010E01D861E861A821982188676
:100CF0001F82212C312CC114D104E104F10409F02C
:100D00003FC08F89988D0E942816411451046104B8
:100D1000710409F466C1481859086A087B08F8E0AC
:100D20004F1651046104710408F022C1EF81F88567
:100D300084819581A681B78129813A812115310568
:100D400009F401C1F90184839583A683B7830F85D4
:100D5000188929893A8948E050E060E070E0CF01C5
:100D60000E94360E89819A810E942816C984DA84ED
:100D7000EB84FC84F4E0CF0ED11CE11CF11C4EC0CE
:100D8000AF89B88D8D919D910D90BC91A02D8B83D5
:100D90009C83AD83BE83EF89F88DF481FB8BAF8993
:100DA000B88D1596BC91BC8BEF89F88DF681FD8BC3
:100DB000AF89B88D1796BC91BE8B8B819C81AD811C
:100DC000BE8188159905AA05BB0508F49FC0881542
:100DD0009905AA05BB0509F053C021143104C9F1D6
:100DE000EB89D1011496EC931497FC891596FC932A
:100DF00015972D8916962C9316973E8917963C9336
:100E00002D853E8548E050E060E070E0C1010E9421
:100E1000360EE4E0CE0ED11CE11CF11CC701B60178
:100E200068960FB6F894DEBF0FBECDBFDF91CF91AD
:100E30001F910F91FF90EF90DF90CF90BF90AF90F8
:100E40009F908F907F906F905F904F903F902F90EA
:100E500008958B8980937F019C8990938001AD894F
:100E6000A0938101BE89B093820100E210E020E0EE
:100E700030E044E050E060E070E08FE791E0C7CF01
:100E8000411451046104710409F44BC08B819C81AD
:100E9000AD81BE8184159505A605B70508F44AC045
:100EA0004B825C826D827E820F85188999899D872D
:100EB000AA89AE8729803A808F89988D0E9428164A
:100EC000AF89B88D14966D917D918D919C911797F6
:100ED00028E030E040E050E00E94D10E4B805C8082
:100EE0006D807E800F87188BBD85B98BEE85EA8B70
:100EF0008601ED86FE86CB88DC88ED88FE883A8206
:100F000029822F88388C988F8F8BF5CE4B825C820C
:100F10006D827E820F851889B989BD87EA89EE873F
:100F2000C9CFC986DA86EB86FC862F89388D38874B
:100F30002F83C2CFC986DA86EB86FC868F89988D8F
:100F400098878F83B9CF80937F0190938001A0937E
:100F50008101B093820100E210E020E030E044E043
:100F600050E060E070E08FE791E00E94360EFECE28
:100F7000C984DA84EB84FC84C40CD51CE61CF71C01
:100F800028E030E040E050E0C701B6010E94D10EF9
:100F90001C01DC018D929D92AD92BC92139797013A
:100FA000860148E050E060E070E00E94360EB4E058
:100FB0004B1A510861087108EF81F885408251820F
:100FC0006282738209851A852B853C8548E050E052
:100FD00060E070E0CF010E94360EC1010E94281629
:100FE000C9CE40908B0150908C0160908D01709023
:100FF0008E0180E090E0A1E2B0E084199509A60995
:10100000B70988159905AA05BB0508F407CFB501EE
:10101000A4014C5F5F4F6F4F7F4F84179507A60762
:10102000B70708F4FBCE28E030E040E050E0C30111
:10103000B2010E94D10E3C0100918B0110918C01F4
:1010400020918D0130918E01DC018D929D92AD92A7
:10105000BC92139748E050E060E070E00E94360ECA
:10106000C0908B01D0908C01E0908D01F0908E01AA
:10107000B4E0CB0ED11CE11CF11C8C0C9D1CAE1CF1
:10108000BF1C80928B0190928C01A0928D01B09236
:101090008E0104E210E020E030E044E050E060E047
:1010A00070E08BE891E00E94360EC3010E94281682
:1010B000B5CE2F923F924F925F926F927F928F9216
:1010C0009F92AF92BF92CF92DF92EF92FF920F93D7
:1010D0001F93CF93DF93CDB7DEB72C970FB6F8945D
:1010E000DEBF0FBECDBF2B013C016115710581052F
:1010F000910509F402C24B015C0124E0821A9108B7
:10110000A108B10828E030E040E050E0C501B4019A
:101110000E94D10E7C01DC0114961D921D921D923D
:101120001C9217979501840148E050E060E070E060
:101130000E94360E20917F01309180014091810103
:101140005091820129833A834B835C83232B242B88
:10115000252B09F03FC0F70180819181A281B381E5
:10116000840D951DA61DB71D40918B0150918C01DA
:1011700060918D0170918E0184179507A607B707BE
:1011800099F480928B0190928C01A0928D01B09283
:101190008E0104E210E020E030E044E050E060E046
:1011A00070E08BE891E012C080927F019092800104
:1011B000A0928101B092820100E210E020E030E0D4
:1011C00044E050E060E070E08FE791E00E94360E6E
:1011D000C70142C128E030E040E050E069817A81F7
:1011E0008B819C810E94D10E1C0119861A861B8658
:1011F0001C86C12CD12C2E143F0408F0D3C0D10181
:1012000014968D919D910D90BC91A02D8D839E8300
:10121000AF83B887C1010E942816F10164817581EE
:101220008681978128E030E040E050E00E94D10EB6
:10123000610129813A814B815C8129873A874B87FB
:101240005C872D813E814F815885232B242B252BB4
:1012500009F09EC01C01C1010E942816D6011496F7
:101260008D929D92AD92BC92179709851A852B8518
:101270003C850C5F1F4F2F4F3F4F4D915D916D91FE
:101280007C91D901C801840F951FA61FB71F88162E
:101290009906AA06BB06D9F4F70180819181A28143
:1012A000B3810496A11DB11D840F951FA61FB71F02
:1012B000F60180839183A283B383F70184819581B2
:1012C000A681B781F60184839583A683B78348E01E
:1012D00050E060E070E0C6010E94360E70907F0121
:1012E00060908001509081014090820128E030E0C0
:1012F00040E050E0672D762D852D942D0E94D10E73
:101300001C01812C912C5401C12CD12CF101848120
:101310009581A681B781892B8A2B8B2B09F0B6C0CA
:10132000C1010E942816F10180819181A281B381BF
:10133000880D991DAA1DBB1D40918B0150918C01F8
:1013400060918D0170918E0184179507A607B707EC
:1013500009F03ECFC114D10409F0C0C010927F0142
:1013600010928001109281011092820100E210E03F
:1013700020E030E044E050E060E070E08FE791E092
:101380000E94360EB4E08B1A9108A108B108F9CE7C
:101390002D813E814F81588529833A834B835C831D
:1013A0001C0129CF89819A81AB81BC81F70184839B
:1013B0009583A683B78380819181A281B381480EF2
:1013C000591E6A1E7B1E29813A814B815C8142161F
:1013D000530664067506D9F40496A11DB11DF101EA
:1013E0004081518162817381840F951FA61FB71FB1
:1013F000F70180839183A283B383F1018481958176
:10140000A681B781F70184839583A683B78395016D
:10141000840148E050E060E070E0C7010E94360EB1
:10142000C114D10409F017CF80927F0190928001FE
:10143000A0928101B092820100E210E020E030E051
:1014400044E050E060E070E08FE791E00E94360EEB
:10145000C7010E942816C1012C960FB6F894DEBF72
:101460000FBECDBFDF91CF911F910F91FF90EF90F5
:10147000DF90CF90BF90AF909F908F907F906F90B4
:101480005F904F903F902F900C942816C6010E94B9
:101490002816D1011496CC9014971596DC901597C8
:1014A00016960C91169717961C91C1010E9428164A
:1014B000F101648175818681978128E030E040E008
:1014C00050E00E94D10E872C962CA52CB42C7C2C9D
:1014D0006D2C502E412E61011C0118CFD60114969F
:1014E0001D921D921D921C9217979501840148E050
:1014F00050E060E070E0C60143CF2C960FB6F89440
:10150000DEBF0FBECDBFDF91CF911F910F91FF9036
:10151000EF90DF90CF90BF90AF909F908F907F9093
:101520006F905F904F903F902F90089580E090E0F3
:101530000895CF92DF92EF92FF920F931F93CF9374
:10154000DF93CDB7DEB728970FB6F894DEBF0FBE96
:10155000CDBF4D835E836F837887FC0101900020AF
:10156000E9F73197E81BF90BAF0160E070E00E94EA
:101570009511AC0160919301709194018091950156
:10158000909196010E94670F6B017C01672B682B7D
:10159000692B89F48FEF9FEF28960FB6F894DEBF82
:1015A0000FBECDBFDF91CF911F910F91FF90EF90B4
:1015B000DF90CF9008956D817E818F8198850E9404
:1015C0002E0669837A838B839C83672B682B692B18
:1015D00009F3970186010D5F1F4F2F4F3F4F44E0E6
:1015E00050E060E070E0CE0105960E94360E970153
:1015F0008601095F1F4F2F4F3F4F44E050E060E0EE
:1016000070E0CE0101960E94360E80E090E0C4CFDB
:10161000EF92FF920F931F93CF93DF9300D000D0F0
:10162000CDB7DEB7FC0101900020E9F73197E81B48
:10163000F90BAF0160E070E00E9495117C016091B0
:101640009301709194018091950190919601A70169
:101650000E94EF0F611571058105910579F18B01EC
:101660009C01095F1F4F2F4F3F4F44E050E060E067
:1016700070E0CE0101960E949E0E69817A818B8175
:101680009C81611571058105910511F00E94590831
:1016900060919301709194018091950190919601D0
:1016A000A7010E9443100F900F900F900F90DF91B1
:1016B000CF911F910F91FF90EF9008958FEF9FEFC3
:1016C000F2CF8F929F92AF92BF92CF92DF92EF9222
:1016D000FF920F931F936A017B01FC010190002090
:1016E000E9F73197E81BF90BAF0160E070E00E9469
:1016F0009511AC01609193017091940180919501D5
:10170000909196010E94EF0F4B015C0161157105EC
:1017100081059105E9F18B019C010D5F1F4F2F4F52
:101720003F4F44E050E060E070E087E891E00E94C5
:101730009E0E95018401095F1F4F2F4F3F4F44E0DC
:1017400050E060E070E083E891E00E949E0E80919E
:10175000830190918401A0918501B09186018C0D47
:101760009D1DAE1DBF1D80938F0190939001A0938E
:101770009101B093920180E090E01F910F91FF9052
:10178000EF90DF90CF90BF90AF909F908F90089593
:101790008FEF9FEFF2CF6091870170918801809168
:1017A000890190918A010895CF92DF92EF92FF9282
:1017B0000F931F93C0908301D0908401E090850126
:1017C000F0908601AB01BC014C0D5D1D6E1D7F1DAF
:1017D00040938F0150939001609391017093920117
:1017E00000918701109188012091890130918A012F
:1017F000D701C601800F911FA21FB31F8417950741
:10180000A607B70778F41F921F921F921F921F928C
:1018100087E18F930E949A110F900F900F900F9075
:101820000F900F901F910F91FF90EF90DF90CF904E
:1018300008950E94330E40918F0150919001609164
:101840009101709192014F5F5F4F6F4F7F4F4093B7
:101850008F015093900160939101709392010895CC
:10186000CF92DF92EF92FF920F931F936A017B0159
:1018700000918F011091900120919101309192017E
:101880000E94360E40918F0150919001609191011C
:10189000709192014C0D5D1D6E1D7F1D40938F0157
:1018A0005093900160939101709392011F910F9159
:1018B000FF90EF90DF90CF900895CF92DF92EF925C
:1018C000FF920F931F936A017B0100918F0110918A
:1018D000900120919101309192010E949E0E4091C1
:1018E0008F015091900160919101709192014C0D86
:1018F0005D1D6E1D7F1D40938F015093900160937D
:101900009101709392011F910F91FF90EF90DF90E2
:10191000CF90089510928F01109290011092910132
:10192000109292010C94DC03EF92FF920F931F939D
:10193000CF93DF93CDB7DEB767970FB6F894DEBFCE
:101940000FBECDBF10927F011092800110928101D5
:101950001092820100E210E020E030E044E050E02C
:1019600060E070E08FE791E00E94360E80E192E047
:10197000A0E0B0E080938B0190938C01A0938D0147
:10198000B0938E0104E210E020E030E044E050E04B
:1019900060E070E08BE891E00E94360ECE01019687
:1019A0007C0187E1F70111928A95E9F781E293E4DE
:1019B0009A83898367E170E080E090E00E942E06C0
:1019C0006093930170939401809395019093960195
:1019D000672B682B692B79F41F921F921F921F921D
:1019E0001F9281E08F930E949A110F900F900F9099
:1019F0000F900F900F9008E210E020E030E044E0FC
:101A000050E060E070E083E991E00E94360E0091C2
:101A1000930110919401209195013091960147E135
:101A200050E060E070E0C7010E94360E67960FB686
:101A3000F894DEBF0FBECDBFDF91CF911F910F9104
:101A4000FF90EF900895CF930E94E00387ED0E94EE
:101A50000A040E940F04C82F0E94DC038C2FCF9130
:101A600008950E94230D87FFFCCF08950F931F93C5
:101A7000CF93DF93EC01162F072F0E94310D0E94A8
:101A8000E0038BE00E940A04CE0126E0969587953C
:101A90002A95E1F70E940A048C2F880F880F802B6B
:101AA0000E940A04812F0E940A0480E0DF91CF91F6
:101AB0001F910F910C940A041F93CF93DF93182F5B
:101AC000EB010E94310D0E94E003113079F484EDA6
:101AD0000E940A0480E00E940A048D2F0E940A04DA
:101AE0008C2FDF91CF911F910C940A0486EDF0CFDB
:101AF0000F931F93CF93DF93082FEB01142F0E94B6
:101B0000310D0E94E0030130E9F41123C9F083E8AC
:101B10000E940A04CE0126E0969587952A95E1F762
:101B20000E940A048C2F880F880F0E940A0480E00C
:101B30000E940A04DF91CF911F910F910C94DC0356
:101B400088E8E6CF112311F086E8E2CF89E8E0CFFC
:101B50001F93CF93DF93EC01162F0E94310D0E944B
:101B6000E0031130C1F483E50E940A04CE0126E0AF
:101B7000969587952A95E1F70E940A048C2F880F85
:101B8000880F0E940A0480E00E940A04DF91CF912E
:101B90001F910C94DC0385E5E7CF1F93CF93DF9370
:101BA000182FEB010E94310D0E94E003113079F4EF
:101BB00084E80E940A0480E00E940A048D2F0E949B
:101BC0000A048C2FDF91CF911F910C940A0487E8AF
:101BD000F0CF0F931F93CF93DF93EC01162F072FB6
:101BE0000E94310D0E94E00382ED0E940A04CE01A2
:101BF00026E0969587952A95E1F70E940A048C2F96
:101C0000880F880F802B0E940A04812F0E940A04EB
:101C100080E00E940A0480E00E940A0480E00E94A2
:101C20000A0480E0DF91CF911F910F910C940A0478
:101C30000E94310D0E94E0038DE30E940A048AE2B3
:101C40000E940A0480E80E940A0486EA0E940A04AC
:101C50000C94DC0320E132E040E050E00E943215B9
:101C6000C9010C94360D0C940F0408956F927F9265
:101C70008F929F92AF92BF92CF92DF92EF92FF929C
:101C80000F931F93CF93DF933C014A015B01C9017E
:101C9000B80120E132E040E050E00E9432156B01D3
:101CA0007C01E9018B0160E0C9010E94A80DB60129
:101CB00080E00E94CD0D730180E1C82E82E0D82E15
:101CC00081149104A104B104A9F441E0BE0180E0B3
:101CD0000E94780DDF91CF911F910F91FF90EF90AF
:101CE000DF90CF90BF90AF909F908F907F906F903C
:101CF0000C94DC03F70181917F010E940A040F5FBD
:101D00001F4FC801B6010E941E15892B89F441E0BE
:101D1000BE0180E00E94780D219660E0CE010E9415
:101D2000A80D60E070E080E00E94CD0D00E010E0C2
:101D3000F1E08F1A9108A108B108C2CFAF92BF920B
:101D4000CF92DF92EF92FF920F931F93CF93DF9387
:101D50005C016A017B01C901B80120E132E040E089
:101D600050E00E943215C9010E94360DE501C114F0
:101D7000D104E104F10461F4DF91CF911F910F913F
:101D8000FF90EF90DF90CF90BF90AF900C94DC036A
:101D90000E940F04899381E0C81AD108E108F10874
:101DA000E6CF8F929F92AF92BF92CF92DF92EF9247
:101DB000FF920F931F93CF93DF934B015C01690157
:101DC0007A01C9010E948F15EC0195018401B701C8
:101DD000A6010E949E0ECE01DF91CF911F910F911F
:101DE000FF90EF90DF90CF90BF90AF909F908F903B
:101DF0000895CF92DF92EF92FF920F931F93CF93AC
:101E0000DF936B017C018A0127E130E040E050E084
:101E10000E94D10EEC018881998180179107E0F42E
:101E20006F85788989899A89611571058105910580
:101E300029F58FE0C80ED11CE11CF11CCE010E94D7
:101E40002816C701B601DF91CF911F910F91FF9026
:101E5000EF90DF90CF90089508171907A8F46B89C9
:101E60007C898D899E89611571058105910531F403
:101E700083E1C80ED11CE11CF11CE0CFA8010E9437
:101E8000F90E6B017C01DACFC12CD12C7601D6CFB3
:101E9000CF92DF92EF92FF920F931F9369017A0125
:101EA000A801C114D104E104F10451F0C701B60145
:101EB0001F910F91FF90EF90DF90CF900C94F90E4F
:101EC0001F910F91FF90EF90DF90CF9008958F9228
:101ED0009F92AF92BF92CF92DF92EF92FF920F93B9
:101EE0001F93CF93DF9300D000D0CDB7DEB76A0148
:101EF000611571058105910509F46AC00E94F90E0A
:101F00004B015C01672B682B692B09F461C067E109
:101F100070E080E090E00E942E0669837A838B83D4
:101F20009C83672B682B692B99F41F921F921F9239
:101F30001F921F9281E08F930E949A110F900F9031
:101F40000F900F900F900F9060E070E0CB012FC0CA
:101F500087E190E00E948F157C01892B31F387E1A6
:101F6000F70111928A95E9F79501840144E050E068
:101F700060E070E0CE0101960E94360EF701D1823A
:101F8000C08283869486A586B68609811A812B81B4
:101F90003C8147E150E060E070E0C7010E94360EEE
:101FA000C7010E94281669817A818B819C810F90DC
:101FB0000F900F900F90DF91CF911F910F91FF9095
:101FC000EF90DF90CF90BF90AF909F908F9008954B
:101FD0001F921F921F921F921F9287E0ACCFCF9249
:101FE000DF92EF92FF920F931F93CF93DF936B01DA
:101FF0007C01EA016115710581059105D1F41F92FB
:102000001F921F921F921F9288E08F930E949A1135
:102010000F900F900F900F900F900F90C701B60187
:10202000DF91CF911F910F91FF90EF90DF90CF90B4
:10203000089527E130E040E050E00E94D10E8C018D
:10204000FC01808191818C179D0761F08C179D07A1
:1020500068F46785708981899289AE010E94EF0FCB
:102060006B017C01C8010E942816D8CFC817D90778
:1020700030F4F8016389748985899689EECFC12C83
:10208000D12C7601EFCF8F929F92AF92BF92CF92D9
:10209000DF92EF92FF920F931F93CF93DF9300D0C5
:1020A00000D0CDB7DEB76B017C018A010E94C6115A
:1020B000A801C701B6010E94EF0F4B015C010E940D
:1020C000C21181149104A104B10411F51F921F9251
:1020D0001F921F921F9288E08F930E949A110F9077
:1020E0000F900F900F900F900F908FEF9FEF0F902A
:1020F0000F900F900F90DF91CF911F910F91FF9054
:10210000EF90DF90CF90BF90AF909F908F90089509
:1021100027E130E040E050E0C501B4010E94D10E5B
:102120007C01FC0187859089A189B2894389548902
:1021300065897689892B8A2B8B2B09F4AAC00385A4
:10214000148525853685C7010F963B966F01452B73
:10215000462B472B09F47DC044E050E060E070E07E
:102160000E94360EF7010785108921893289055FA3
:102170001F4F2F4F3F4F44E050E060E070E0C6013A
:102180000E94360EF701638974898589968922E059
:1021900030E040E050E00E94D10E8C01F7016785ED
:1021A0007089818992896D5E7F4F8F4F9F4F24E0A8
:1021B00030E040E050E00E94D10EFC01608171816E
:1021C000828193816115710581059105E1F5F70122
:1021D00067857089818992896D5E7F4F8F4F9F4F90
:1021E00069837A838B839C83672B682B692B79F4B3
:1021F0001F921F921F921F921F9287E08F930E943F
:102200009A110F900F900F900F900F900F900981DF
:102210001A812B813C8144E050E060E070E0C7010E
:1022200043960E94360EF701038914892589368961
:10223000055F1F4F2F4F3F4F44E050E060E070E0DC
:10224000CE0101961AC0F801408151810E94F90E19
:10225000C7CF44E050E060E070E00E94360EF70126
:102260000785108921893289055F1F4F2F4F3F4F06
:1022700044E050E060E070E0C6010E94360EC50107
:10228000B4010E945908C7010E94281680E090E01E
:102290002ECF452B462B472BE9F0F70103851485FC
:1022A0002585368544E050E060E070E0C701439644
:1022B0000E94360EF7010389148925893689055F46
:1022C0001F4F2F4F3F4F44E050E060E070E0C701E8
:1022D0000B96D3CF19821A821B821C82F7010385C9
:1022E000148525853685A8CFFC0180E090E041501B
:1022F00051096109710977FD08952191022E000CA1
:10230000330B322F22278227932728E0DC01AA0FE4
:10231000BB1F97FF08C0CD0131E2832730E193272F
:102320002150A1F7E4CFCD01FBCF0C94741180E0D4
:1023300090E00895CF93DF93CDB7DEB78D819E8176
:10234000AF81B8858093980290939902A0939A02E6
:10235000B0939B02DF91CF91089587E991E00895B2
:10236000609198027091990280919A0290919B02DB
:102370000895109298021092990210929A02109267
:102380009B02089581E0809397020895109297022E
:102390000895CF92DF92EF92FF920F931F93CF9306
:1023A000DF93EC01062F69017A01892BD1F41F928A
:1023B0001F921F921F921F9282E08F930E949A1188
:1023C0000F900F900F900F900F900F908FEF9FEF47
:1023D000DF91CF911F910F91FF90EF90DF90CF9001
:1023E00008951881103138F01F921F921F921F928A
:1023F0001F9283E0E2CF67E070E081E090E00E940E
:102400007815FC01009739F41F921F921F921F92BA
:102410001F9281E0D2CF0083C182D282E382F48214
:1024200016821582A981BA81109721F49A83898333
:102430000BC0DC0115968D919C9116970097C9F7FA
:102440001696FC93EE9315971F5F188380E090E03B
:10245000BFCF7F928F929F92AF92BF92CF92DF9227
:10246000EF92FF920F931F93CF93DF93CDB7DEB719
:102470001889113190F01F921F921F921F921F9284
:1024800083E08F930E949A110F900F900F900F90FE
:102490000F900F90E12CF12C18C063E070E081E008
:1024A00090E00E9478157C01892BF1F41F921F9215
:1024B0001F921F921F9281E08F930E949A110F909A
:1024C0000F900F900F900F900F90C701DF91CF9159
:1024D0001F910F91FF90EF90DF90CF90BF90AF9042
:1024E0009F908F907F9008956E0181E1C80ED11C5E
:1024F00086E1982E115048F3F601708088E0C80EEE
:10250000D11C8180A280B38064817581272D382DF4
:10251000A5018681978100E20E945C15022F077059
:10252000033070F01F921F921F921F921F929F9272
:102530000E949A110F900F900F900F900F900F9094
:10254000272D382DA501602FC7010E94C91197FFC3
:10255000D1CF1F921F921F921F921F928AE08F93DA
:102560000E949A11C7010E9428168ECFDC01892B88
:1025700099F41F921F921F921F921F9282E08F93D5
:102580000E949A110F900F900F900F900F900F9044
:10259000E0E0F0E0CF0108951196ED91FC911297E3
:1025A000309731F08581968112969C938E93119786
:1025B000168215828C9181508C93ECCFCF92DF9252
:1025C000EF92FF920F931F93CF93DF93EC018B0158
:1025D000672BE9F4CE01DF91CF911F910F91FF900E
:1025E000EF90DF90CF900895C8010E94B6127C0151
:1025F000FC0121813281438154816081CE010E949E
:10260000C9116C01C7010E942816D7FC05C0F8014A
:1026100080818111E9CFDECFC0E0D0E0DBCF0F9326
:102620001F93CF93DF93EC01892BB1F41F921F927C
:102630001F921F921F9282E08F930E949A110F9017
:102640000F900F900F900F900F908FEF9FEFDF91F3
:10265000CF911F910F91089589819A81009749F434
:10266000CE010E94281680E090E0F1CF0E9428164B
:10267000C801FC010581168101151105B9F7F0CFDC
:102680002F923F924F925F926F927F928F929F9282
:10269000AF92BF92CF92DF92EF92FF920F931F9370
:1026A000CF93DF93A62EB42E6901E7010115110522
:1026B00011F0209721F51F921F921F921F921F92D7
:1026C00082E08F930E949A110F900F900F900F90BD
:1026D0000F900F908FEF9FEFDF91CF911F910F9190
:1026E000FF90EF90DF90CF90BF90AF909F908F9032
:1026F0007F906F905F904F903F902F900895232B85
:1027000029F41F920E9429126C010F90A882B982AD
:10271000D6014C904E825E01B7E0AB0EB11C512C3D
:10272000E12CF12C66246394712CC601E414F504A9
:102730002CF00E940F1380E090E0CECF0E94B612E2
:102740001C01DC01ED91BD018E2F837090E097019B
:10275000220F331F02C0880F991F2A95E2F7092E16
:10276000000CAA0BBB0B2A813B814C815D81822B23
:10277000932BA42BB52B8A839B83AC83BD8343010E
:1027800002C0880C991CEA95E2F79924A401C501BE
:102790000E94B316A80CB91CF80183819481880E9D
:1027A000991E94828382C1010E942816FFEFEF1ABE
:1027B000FF0ABBCFCF92DF92EF92FF920F931F934E
:1027C000A22F9601FB01EE0FFF1FEE5CFE4F842F40
:1027D00090E0880F991F40815181840F951FFC0163
:1027E00080819181009751F0A7016A2F1F910F916D
:1027F000FF90EF90DF90CF900C94D8141F921F920F
:102800001F921F921F9280E18F930E949A110F9046
:102810000F900F900F900F900F9060E070E0CB0141
:102820001F910F91FF90EF90DF90CF900895CF927E
:10283000DF92EF92FF920F931F93CF93DF93FC01F0
:10284000EB016C0187E0C80ED11CE280F3800481AB
:102850001581608170E080E090E0268141810E94D6
:10286000DA13688379838A839B830E94B0116C8317
:102870007D838E839F83CB01DF91CF911F910F9139
:10288000FF90EF90DF90CF9008958FEF9FEF089526
:10289000CF93DF93EC018091260190912701DC0119
:1028A0001896ED91FC91199725E130E040E050E059
:1028B00061E171E00995092E000CAA0BBB0B88831E
:1028C0009983AA83BB830E94B0116C837D838E831E
:1028D0009F83CB01DF91CF910895EF92FF920F93E9
:1028E0001F93CF93DF93EC018B0188818E3FC1F062
:1028F0001F921F921F921F921F9282E18F930E943C
:102900009A110F900F900F900F900F900F908FEFE4
:102910009FEFDF91CF911F910F91FF90EF9008955E
:10292000E980FA801A8219824B815C8160E070E054
:10293000CE010E949511E816F906D1F6ED818E2F91
:1029400090E08930910568F5FC01E755FB4E0C9449
:102950005415B214B814BE14C414CD14C414CD1438
:10296000C414B514C8010E94481480E090E0D1CF8F
:10297000B801CE0106960E941714F7CFB801CE0118
:1029800006960E944514F1CFCE010E948404F801FE
:102990006083718382839383E8CFCE010E94DE043B
:1029A000F6CF1F921F921F921F921F928CE1A6CF0B
:1029B0002F924F925F929F938F93262E2A01F901B7
:1029C000BB27A9E1222019F1042D0370003021F06A
:1029D000013031F0023059F001900E92AA9511C0E9
:1029E000AA9501900D9201900C92A2500AC0A3509A
:1029F00001900D9201900D9201900D9201900C9218
:102A0000A45055944794559447942A94DBCFEF9162
:102A1000FF9109955F904F902F9008950E94370580
:102A20000E947C010E94F70240E069E180E00E9480
:102A300018030E94B9110E948204FFCFAA1BBB1B7E
:102A400051E107C0AA1FBB1FA617B70710F0A61BAE
:102A5000B70B881F991F5A95A9F780959095BC01CF
:102A6000CD010895A1E21A2EAA1BBB1BFD010DC0CA
:102A7000AA1FBB1FEE1FFF1FA217B307E407F5072E
:102A800020F0A21BB30BE40BF50B661F771F881F0A
:102A9000991F1A9469F760957095809590959B01A0
:102AA000AC01BD01CF010895EE0FFF1F0590F49119
:102AB000E02D099497FB10F8169400080F93083046
:102AC00098F00850232F342F452F562F672F782F3B
:102AD000892F902DF4CF05949795879577956795D5
:102AE00057954795379527950A95AAF70F91089519
:102AF0000F931F93CF93DF930E94C3168C010E9404
:102B00008F15EC01009729F0A80160E070E00E94A9
:102B1000BC16CE01DF91CF911F910F9108950F93B5
:102B20001F93CF93DF938230910510F482E090E001
:102B3000E0919E02F0919F0220E030E0A0E0B0E042
:102B4000309799F42115310509F447C0281B390B3A
:102B500024303105C0F58A819B816115710571F1C1
:102B6000FB0193838283FE0111C040815181028168
:102B7000138148175907F8F04817590799F4109727
:102B800061F012960C93129713961C933296CF0114
:102B9000DF91CF911F910F91089500939E021093A2
:102BA0009F02F4CF2115310519F04217530718F48D
:102BB0009A01BD01EF01DF01F801C2CF90939F029E
:102BC00080939E02D0CFFE01E20FF31F8193919379
:102BD0002250310939832883DACF20919C02309129
:102BE0009D02232B41F420912E0130912F0130932F
:102BF0009D0220939C0220912C0130912D012115E2
:102C0000310541F42DB73EB740913001509131016B
:102C1000241B350BE0919C02F0919D02E217F30713
:102C2000A0F42E1B3F0B2817390778F0AC014E5F3C
:102C30005F4F2417350748F04E0F5F1F50939D02DA
:102C400040939C0281939193A2CFE0E0F0E09FCF6C
:102C5000CF93DF930097D1F0FC0132971382128259
:102C6000A0919E02B0919F02109799F4208131812A
:102C7000820F931F20919C0230919D0228173907E3
:102C800009F066C0F0939D02E0939C02DF91CF9122
:102C90000895ED0120E030E0CE17DF0708F03FC0D7
:102CA0004A815B819E0141155105B9F5E901FB831C
:102CB000EA8349915991C40FD51FEC17FD0761F4C0
:102CC000808191810296840F951FE9019983888301
:102CD000828193819B838A83E0E0F0E012968D915C
:102CE0009C9113970097C9F52D913C911197CD01B7
:102CF0000296820F931F20919C0230919D0228170B
:102D0000390721F6309761F510929F0210929E02CA
:102D1000B0939D02A0939C02B9CFEA01BDCFD383AB
:102D2000C28340815181840F951FC817D90761F470
:102D30004E5F5F4F88819981480F591F51834083AF
:102D40008A819B81938382832115310509F0AECF5F
:102D5000F0939F02E0939E0299CFFD01DC01BECF6C
:102D600013821282D5CFFB01DC0102C001900D92CB
:102D700041505040D8F70895DC0101C06D93415097
:102D80005040E0F708950024552704C0080E591F4D
:102D9000880F991F009729F076956795B8F371050C
:0C2DA000B9F7802D952F0895F894FFCF0F
:102DAC0001980396037E037F0384038D0381030044
:102DBC0000666C6970706572000000000000000015
:102DCC000013C70100040101000000000000A00274
:102DDC0020003E01420158016001640176017C0132
:102DEC008001960A990A080B610BCB0BD40B190CBA
:102DFC00300C5D0C8A0C940CDF02E202EA02F20247
:102E0C00F7021803650575057E0582058B058F0590
:0A2E1C009605C005E0052006230618
:00000001FF
